:1000000071C100008CC100008AC100000C94211253
:1000100086C1000084C1000082C100000C9410124F
:100020007EC100007CC100007AC1000078C10000E0
:1000300076C1000074C1000072C1000070C10000F0
:100040006EC100006CC100006AC1000068C1000000
:100050000C94C61164C1000062C1000060C10000C0
:100060005EC100005CC100005AC1000058C1000020
:1000700056C1000054C1000052C100003037313574
:100080002E302E000001050414101115FF0F8D0AEB
:10009000800C020ED609DA0A120BEB0A910A1B0A2F
:1000A0009709160A6C09C708D0082B080E087307B1
:1000B00044070A07C90645060606C5058405430523
:1000C0000405C6048A0451041A04E503B20382033A
:1000D00055032A030003DA02B502920271025202AA
:1000E00034021802F701E501CE01B701A2018E0129
:1000F00080016E016101540147013F0133012A0172
:1001000024011C01180111010D010A01070104015C
:10011000020100010001FF00FF00FF00FF00FF00DF
:10012000FF00FF00FF00FF00FF00FF00FF00FF00D7
:10013000FF00FF00FF00FF00FF00FF00FF00FF00C7
:10014000FF00FF00FF00FF00FF00FF00FF00FF00B7
:10015000FF00FF00FF00FF00FF00FF00FF00FF00A7
:10016000FF00FF00FF00FF00FF00FF00FF00FF0097
:10017000FF00FF00FF00FF00FF00FF00FF00FF0087
:10018000FF00FF00FF00FF00FF00FF00FF00FF0077
:10019000FF00FF00FF00FF00FF00FF00FF00FF0067
:1001A000FF00FF00FF00FF00FF00FF00FF00FF0057
:1001B000FF00FF00FF00FF00000000000000000043
:1001C000000000000000000000000000000000002F
:1001D000000000000000000000000000000000001F
:1001E000000000000000000000000000000000000F
:1001F00000000000000000000000000000000000FF
:100200000000000001020305050608090B0B0D0E96
:10021000101112141617191B1C1F21222527282B19
:100220002D2F323437393C3E414447494D4F5356C8
:100230005A5D6064676B6E72767A7D82868A8E9371
:10024000979CA0A5AAAFB4B9BEC3C8CDD2D80101AE
:100250000203030405060708090B0C0D0F10121307
:1002600015171A1B1C1E20222426282A2C2E303259
:100270003436383A3C3E40424446474A4C4E50524F
:1002800055575A5D6064676B70747A7F858C939A5A
:10029000A3ABB6C0CBD7E4F1FFFFFFFFFFFFFFFF2B
:1002A000FFFFFFFFFFFFFFFFFFFFFFFFFFFFFFFF5E
:1002B000FFFFFFFFFFFFFFFFFFFFFFFFFFFFFFFF4E
:1002C000FFFFFFFFFFFFFFFFFFFFFFFFFFFFFFFF3E
:1002D000FFFFFFFFFFFFFFFFFFFFFFFFFFFFFFFF2E
:1002E000FFFFFF0011241FBECFEFCDBFDFE3DEBF56
:1002F00018E3A0E0B8E3E8E7FBE202C005900D9246
:10030000A633B107D9F728E3A6E3B8E301C01D92ED
:10031000AD3CB207E1F70E9431120C94931570CEF8
:10032000F89498ED94BF809361008091630080FD04
:10033000FCCF78940895E0E0F6E0828581608287C2
:100340008085816080870895EAE9F8E320E030E065
:100350009081992339F02F5F3F4F3396203131053B
:10036000B9F70BC0F901EE0FFF1F2E0F3F1FF90168
:10037000E656F74C80836183728308950F931F9331
:10038000CF93DF93D0919A38DD2351F100919B38C0
:1003900010919C38C0917738C150C7FD0DC0EC2F2B
:1003A000EE0FFF0BE858F74C0190F081E02DB801FB
:1003B0008D2F09958111F0CFEAE9F8E383818083DD
:1003C0008481958181839283339688E3E73CF807A3
:1003D000A9F71092C7381092C8381092C938D2CFF6
:1003E000DF91CF911F910F910895BC018091CC387E
:1003F000ABCF1092CC381092CA381092CB3881E033
:100400008093673808950F931F93CF93C82F0CECF8
:1004100018E0CC2349F085E083DFC8010197F1F7AC
:1004200081E07EDFC150F5CFCF911F910F910895EC
:10043000E0E0F6E083E88083838180628383A0EA42
:10044000B0E08C918F7880648C938DE1868382E01C
:10045000818383E5828310929638109297386BCF10
:1004600082B185FB882780F991E0892780937038D5
:100470000895E0910638F09107383196FB70F460EA
:10048000E0930638F093073880916A388B5A80934E
:100490006A38E49180916A388E0F0895FF920F9325
:1004A0001F93CF93DF9300D01F92CDB7DEB720917B
:1004B0002AAB30912BAB40912CAB29833A834B83F1
:1004C0008E010F5F1F4F20E030E0682F70E0E1E009
:1004D000F0E098E0F92ED8019D918D01A901440F1B
:1004E000551FDB0102C0B595A7954A95E2F7AD010E
:1004F000437081F04130C9F4A92FB0E0AF0102C0D0
:10050000440F551F9A95E2F740934204A05BBB4FFE
:10051000FC9215C0AF0102C0440F551F9A95E2F737
:1005200040934104409346040AC0DF0102C0AA0F71
:10053000BB1F9A95E2F7A0934104A09345042F5F57
:100540003F4F2330310539F62396CDBFDEBFDF9113
:10055000CF911F910F91FF900895811102C081E00A
:1005600001C082E09BCF811102C085E001C08AE01A
:1005700095CF811102C084E001C088E08FCF811146
:1005800002C084E101C088E289CF811102C080E10C
:1005900001C080E283CF811102C081E101C082E20B
:1005A0007DCF811102C085E101C08AE277CF81E071
:1005B000089590E0FC01E25BFD4FE4914E2F50E086
:1005C000FC01E854FE4FE4912E2F30E0FC01EE0FC9
:1005D000FF1FE457FF4F8591949140933A0A50933F
:1005E0003B0A2093380A3093390A8093360A909355
:1005F000370A80916D38811104C01092200A109240
:10060000210A089590E0FC01E25BFD4FE4912E2F5A
:1006100030E0FC01E854FE4FE491F0E080913A0AAA
:1006200090913B0A892B19F42F3F310551F08091AD
:100630003A0A90913B0A8F3F910541F4211531050B
:1006400029F420933A0A30933B0A1DC080913A0A5C
:1006500090913B0A8217930730F480913A0A909167
:100660003B0A01960CC080913A0A90913B0A2817E8
:10067000390748F480913A0A90913B0A0197809398
:100680003A0A90933B0A8091380A9091390A8E1762
:100690009F0730F48091380A9091390A01960CC076
:1006A0008091380A9091390AE817F90748F4809147
:1006B000380A9091390A01978093380A9093390A41
:1006C00080913A0A90913B0A2817390741F420910A
:1006D000380A3091390A81E0E217F30709F080E027
:1006E0000895CF93DF93CDB7DEB72697CDBFDEBF9A
:1006F00090910C3820918838309189382C553B40A6
:1007000009F492E0843019F4609318381FC066230E
:10071000E9F0823019F427E9261B622F26E0EDE28A
:10072000FBEADE01119601900D922A95E1F79E01F8
:100730002F5F3F4F280F311D280F311DF9013297D0
:100740000190F081E02DE90FF11D60832696CDBF69
:10075000DEBFDF91CF910895BF92CF92DF92EF92EB
:10076000FF920F931F93CF93DF93EC0140910C38CE
:1007700090911738992311F0E2E001C0E42FF0E0E6
:10078000E45FF74C228120930938858180930838F3
:10079000E92FF0E0E45FF74C3185622F70E04423ED
:1007A00049F0313039F49B01280F311DC90195956D
:1007B000879538C0C617D707A4F1682F70E06C176B
:1007C0007D0784F1411102C08C2F2CC0821B032FA6
:1007D00010E001501109E82EF12CC701B8010E9468
:1007E0002A15609364386695E62FF0E0822FC12CBD
:1007F000D12CB12CB316B1F0C601B8010E94161568
:10080000822F860FCE0CDF1CAE01481B510957FF0B
:1008100003C0519541955109E417F5071CF4B394B1
:10082000E9CF822FDF91CF911F910F91FF90EF9031
:10083000DF90CF90BF900895ECE0F8E38685809339
:100840000A388389808B80936E3808958091603850
:10085000882351F090916D389093633880935F387E
:1008600010925D3810925E3808950F931F93CF93C6
:1008700020918C389FEF920F903910F480E098C04F
:10088000E82FEF7090916138911123C0C82FC29565
:10089000CF708091313838E0839FC00111246817F0
:1008A0007907C0F430916638432F50E04817590754
:1008B0008CF4332379F091E080916C388F3008F418
:1008C00090E081E0C23009F080E0892BC1E0C80FE0
:1008D00036C0C2E0E73088F1E730A9F400913B3838
:1008E00010E00F5F1F4FC5DD65E00E940A159801FB
:1008F000290F311DC90166E070E00E942A1580931E
:100900003B38FC013AC0E830D1F480916F3888233D
:1009100011F02FE001C023E030E062237323672B46
:1009200051F480913B3890E0019666E070E00E94BF
:100930002A1580933B38E0913B38F0E01EC080914F
:100940006F38882381F080E0E82FF0E0EA5BF4451F
:100950009081291710F08E5FF7CF3197E081F0E09A
:10096000EC57FF4F0CC0CB019695879563E070E084
:100970000E941615FC01EE0FFF1FEB57FF4FE4918D
:10098000C33071F480913A3890E0019663E170E0F1
:100990000E94161580933A38DC01AD5CB445CC91C9
:1009A000CC2321F0C13019F0EE0F01C0E0E08E2F12
:1009B000CF911F910F9172CD81E00895823019F48B
:1009C000609331380895611160932C38089566233F
:1009D00089F0813061F480918A3890912E38891B9A
:1009E000681B60932E3882E080930B3803C0635EEF
:1009F00060932D3880912D38873418F086E48093E9
:100A00002D380895609332380895E82FF0E0E45FC0
:100A1000F74C66A308957FEF780F40911D385091F1
:100A20001E38662359F021E030E002C0220F331F48
:100A30007A95E2F7CA01822B932B0AC081E090E0FD
:100A400002C0880F991F7A95E2F780958423952339
:100A500080931D3890931E380895CF93DF938CE0D8
:100A600098E3809368389093693882E0CCDCF894FE
:100A7000C0E0D0E0E0916838F0916938EC0FFD1FDC
:100A800060812196CE010E947615CA32D10591F778
:100A900065EA80E090E00E9476157894DF91CF912E
:100AA0000895CF93109298388091100690916A38EB
:100AB000890F80936A3880918D38882309F44CC15E
:100AC00010928D389091963880916F38882349F034
:100AD000809100068E7F80930006109299381092C4
:100AE0009638911166C080910B38882329F02091A7
:100AF0009238309193381AC020916F3880918E3897
:100B000090918F382223B9F0209192383091933808
:100B100063E0369527956A95E1F7280F391F73E052
:100B2000969587957A95E1F7281B390B20938E3897
:100B300030938F3801C09C01C0912C38CC0FC45029
:100B400054E0369527955A95E1F740E050E060E093
:100B500070EB84E090E00E943D15C20FC0938C388A
:100B600080915438882311F0815007C0C13938F47E
:100B700060E070E084E0E8DB85E0809354388091A9
:100B80006F388111E0C08091A0008F7880618093E0
:100B9000A0008EE18093060682E08093010683E444
:100BA0008093020681E08093963810929738C3DBD9
:100BB000CAC0913009F0C7C080910B38882341F03A
:100BC0008091943890919538809390389093913893
:100BD0002091201180912111A0919038B0919138ED
:100BE00030E48302A019B109112430E00E945F159E
:100BF000DC01CB01905EAF4FBF4F892F9A2FAB2FF7
:100C0000BB2720912E38FC0136E0F695E7953A9502
:100C1000E1F7022E000C330BA901435151404E0F56
:100C20005F1F40938A3850938B38BC0145E076951E
:100C300067954A95E1F780910B3881112AC0809120
:100C40004338E82FF0E0EE0FFF1FEC5BF74C4081DC
:100C50005181DB01A41BB50BAD01608371838F5FF4
:100C600087708093433880912D3890E08D5E9E4F41
:100C7000821B930B880F991F9B01281B390BC901FD
:100C80009D01220F331F220F331F820F931F23E07A
:100C90000EC0E4E4F8E36193719388E3E435F80768
:100CA000D1F7CDCF009709F00196215029F0181601
:100CB0001906C4F70197F9CF18161906E4F457FD81
:100CC00039C02091423812160CF1880F991FBC01CF
:100CD0006350710977FF02C06F5F7F4F759567950D
:100CE0001616170614F061E070E088E1861B809309
:100CF000423885E026C08C3FAFEF9A07DCF457FFFF
:100D000019C02091423827FF05C02450281B20938A
:100D1000423818C024EE281B2093423820918C388A
:100D2000233980F06CEF7FEF681B790B7595679521
:100D300086E007C080918C38823920F060E070E056
:100D400087E002DB75DB80910B38882329F08091E6
:100D50000B38815080930B38CF910895CF93C82FD3
:100D600080916F38811101C099DBC1110DC01092C3
:100D70003A0A10923B0A1092380A1092390A1092DD
:100D8000200A1092210A0EC0E0916E3884E0E89F9C
:100D9000F0011124E85AF4450190F081E02D8FEF25
:100DA0008C0F099580916D38C81380936C38C0936F
:100DB0006D38C0936B38C53010F485E005C0C43180
:100DC00010F483E001C081E0CF91AACACF93C09113
:100DD0006D3889E18C0F873908F080E0BFDF82E051
:100DE00012DB8C2FCF91BACFCF93C0916D3880E0BA
:100DF000B5DF83E008DB8C2FCF91B0CF80936538CF
:100E000090916D38981718F4282F291B02C0292FAC
:100E1000281B30915738311106C0309121383323C7
:100E200069F0223058F08093583884E08093563827
:100E300081E0809357389093593808958FCFCF939E
:100E4000DF9390916E38981759F0C82FD0916D3874
:100E500080E084DFC0936E388D2FDF91CF917ECFFD
:100E6000DF91CF910895813019F410921A380895C6
:100E7000823019F460931B380895833019F460931D
:100E800019380895843019F460930D380895853029
:100E900011F4609321380895CF93C0911738C11190
:100EA0004FC0883039F41092603810925D3810923B
:100EB0005E3847C0813B81F4809160388150833037
:100EC00008F03EC083E08093603880935F381092D2
:100ED0005D3810925E3834C0853BB1F4CB016EE3CF
:100EE00070E00E941615892B61F5809160388A3F69
:100EF00040F58B5F8093603880935F3810925D3847
:100F000010925E3863DF1DC08130D1F480915D386E
:100F100090915E38019688382EE0920728F48093ED
:100F20005D3890935E380DC010925D3810925E3837
:100F300080916038882329F081508093603801C007
:100F4000C1E08C2FCF910895FF920F931F93CF9301
:100F5000DF938C01EB01F42E8091883890918938D1
:100F6000892B31F0E0918838F091893889E0099532
:100F70000093883810938938012B39F0E091883834
:100F8000F0918938BE018F2D099581E080936738F3
:100F9000DF91CF911F910F91FF900895CF93DF9331
:100FA000E0917738EE2359F0E150E0937738F0E0A4
:100FB000EE0FFF1FE858F74CC081D18102C0C0E09E
:100FC000D0E0E0917738EE2341F0F0E0EE0FFF1F24
:100FD000EA58F74C8081918102C080E090E04AE0BD
:100FE00060E070E0B1DFCE01DF91CF9108958830ED
:100FF00029F41092553810923C3815C0813001F513
:1010000090913C38911107C06032710570F1809366
:101010003C38EFD92AC0913089F46B3B710528F038
:1010200082E080933C3880E01FC061157105E9F0D3
:101030006270862F880F880F8E5E16C0AFDF15C0D6
:10104000813811F0813E89F491E090933C38813EE3
:1010500021F480915538865F03C0809155388F5FA9
:1010600080935538C6D98BE479DE80E008959C01E1
:1010700090917738983088F4E92FF0E0EE0FFF1F59
:10108000E858F74C208331839F5F9093773848E08E
:10109000C9015ADF8091773808958FEF08950F9333
:1010A0001F93CF93DF93EC018B0178DFB801CE0162
:1010B000DF91CF911F910F91DACF843011F580919C
:1010C0008838909189382FE08734920729F469E1B4
:1010D00070E086EC98E013C0865C984061F49091D3
:1010E0006D38923040F0892F869596959695890FA8
:1010F00085DE80E0089560E070E083EF9BE0CFDF65
:10110000F8CF81E00895813C29F460E070E083EF3E
:101110009BE006C0823C31F460E070E08EE79BE02B
:10112000BEDF16C0813B49F4CB016EE370E00E9444
:101130001615892B69F44ADE0BC0813E59F4CB01A8
:101140006EE370E00E9416156F5F60932B3885DCAC
:1011500080E0089581E00895813C29F460E070E02A
:1011600083EF9BE006C0823C31F460E070E083E8EE
:1011700098E095DF07C0873B39F460E070E088E6CF
:101180009BE075DF80E0089581E00895BF92CF92E3
:10119000DF92EF92FF920F931F93CF93DF93182F5D
:1011A000EB0180911C3880936E38D0900938F09014
:1011B000083880910C38882319F0B090643802C048
:1011C000BB24B394C0900D38809117388111C09022
:1011D0001838CC2051F031E0C31621F080910A3844
:1011E0008F1518F0F6E9EF2E01C0EF2C0091603852
:1011F000BE01812F51DE20916038222339F0011188
:101200000CC080916D388093633807C0002329F0AB
:1012100060E070E083EF9BE036C0812F8D7F8830E7
:10122000D9F410925C381A3019F4C0910A38D0E021
:101230008D2D90E08C179D0738F48F2D90E0C81706
:10124000D90710F4C0930A38CE0186DAD7DD81E0E1
:101250008093053800E0BAC1113CD1F2123C59F438
:1012600080916D388E1510F48E2D02C080910A3851
:10127000C5DDECDAEFCF143C41F480E06FDD60E0D7
:1012800070E087E49DE00BDFE5CF8FE4810F8230D3
:1012900008F061C080910C38882341F0CE0168E1EC
:1012A00070E00E941615892B31F0D4CF609114386C
:1012B00070E0CE01F6CF009157380111CBCF80916D
:1012C0006D38209761F4123B11F48FEF05C08F1534
:1012D000E0F7D81648F181E08093053825C02091C9
:1012E000143830E066E371E0269FA001279F500D7F
:1012F000369F500D11244C175D0710F48F1528F7F9
:101300006CE672E0269FA001279F500D369F500D7E
:1013100011244C175D0740F4D81630F057DD60E01B
:1013200070E087E49DE0BBDEC0916D382091053808
:101330003B2D2303C00111248C0F911D0DDA8093E6
:101340000A38C81719F0F81201C04EDD80910A382A
:1013500055DD7CDA3BC18FE1810F823020F4809132
:101360000538819575CF113009F084C0A99711F423
:1013700010930538222371F1C0916338C29F900108
:101380001124E0915F38F0E0C901BF010E942A15E5
:10139000462FC9018C1B9109BF010E942A15242FD9
:1013A000261B80915D3890915E386EE370E00E945C
:1013B0001615269FC001279F900D11246CE370E045
:1013C0000E941615461B642F09F461E060936B3888
:1013D00060936538C0916B3820916D388C2F90E008
:1013E000821B910960913F38709140386F5F7F4F49
:1013F00060933F3870934038009709F42BCF97FFE4
:1014000005C0293730F040E450E005C040E052E02C
:1014100002C040E051E05695479597FD019695959D
:1014200087950097C1F74617570708F013CFC217E3
:1014300010F4CFEF03C02C1710F4C1E0C20FE091FD
:101440006E3884E0E89FF0011124E85AF4450280E8
:10145000F381E02D8FEF8C0F0995882331F0D09127
:101460006B388C2F7BDCD0936B3810923F38109206
:101470004038F0CE1530A1F480916D388D3308F4EA
:10148000E9CE90E08C1B9D0B8C33910534F08739AD
:1014900091056CF186E990E02AC08CE390E027C0CA
:1014A0001630B9F490916D3880916538981708F02E
:1014B000D1CEC90FD11D90E08C179D0734F0CC33ED
:1014C000D10524F4CCE3D0E001C0EC01C0936B382B
:1014D000C1CE173079F490916B3880916D388917AF
:1014E00010F48F5F04C0981708F0B4CE8150809339
:1014F0006B38B0CE133C19F0163C41F517C0609123
:101500001D3870911E3880E090E020E0AB01082E7D
:1015100002C0569547950A94E2F74170240F019650
:101520008830910599F7223008F04FC081E0909102
:101530000C38911180E080930C388FDA55DC809163
:101540006D3890E009D980930A3892CE009117380F
:1015500001113BC0133B49F4CD2B09F07BCECC20CD
:1015600011F086E9E82E8E2D04C0133E21F48091FF
:101570000A3844DC2BC0153C61F480916D388093AF
:101580000A3880E0EBDB60E070E083EF90E187DD1C
:101590001DC0173B29F460E070E088E59BE013C0B4
:1015A0001A3C59F480916D3880931A3880916E38C6
:1015B00080931F3852DA0ADC09C01A3B31F460E02C
:1015C00070E080E69BE053DD01C001E0802FDF91F9
:1015D000CF911F910F91FF90EF90DF90CF90BF9030
:1015E00008950F931F93CF938B01C42F883091F4EC
:1015F00080916E3880933E3810923D3880E0AEDBAB
:101600008091703881114FC080913D388F5F8093F9
:101610003D3833C0982F907F903B21F580913D3825
:101620004817E8F08150883040F49091623899234F
:1016300021F090916E38891302DCC8016DE570E0ED
:101640000E941615069749F480913D388F5F80936C
:101650003D38C81740F188E303C082E101C080E053
:101660007DDB21C0903E79F480913D388823A1F044
:10167000481790F080913E38E2DB60E070E087EF41
:1016800097E0F5DC10C08A3049F4609155388091BC
:101690003D38F9010995E1D981DC05C0893019F49B
:1016A00080913E38CCDB80E0CF911F910F9108955F
:1016B00021E733E043E095CF21E733E044E091CFE9
:1016C00023E337E045E08DCF2EED34E042E089CFD3
:1016D00027EE34E042E085CF22E035E041E081CFE3
:1016E00025E035E043E07DCF91E0909362382BE038
:1016F00035E048E076DF109262380895CF93C091CC
:101700001738C11123C0813C29F460E070E083EFF9
:101710009BE006C0823C31F460E070E08CEA98E027
:10172000BEDC15C0833C51F48091203890E00196D6
:10173000877099278093203890D909C0873B31F46E
:1017400060E070E084E69BE092DC01C0C1E08C2F99
:10175000CF910895CF93833C21F540916E386091ED
:101760001D3870911E38842F98E0282F30E02F5FAD
:101770003F4F27703327822FFB0102C0F695E79574
:101780002A95E2F7E0FF0AC04817B9F058DB8091CC
:101790006E3880931C3861D9C0E010C0915029F791
:1017A000F3CFC0911738C11108C0893B31F460E014
:1017B00070E084E79BE05BDC01C0C1E08C2FCF913F
:1017C000089590912138992369F08093583888E0E2
:1017D0008093563881E08093573880916D3880939C
:1017E00059380895BBCA0F931F93CF938B0188304C
:1017F000A1F480E0E6DF80915738082B109266381C
:1018000080911C3880936E3810926038012B09F05B
:1018100043C081E080936F383FC0813051F469311B
:101820007105D0F1C0915738C11136C080936F381F
:1018300029C1833099F5809166388F3F19F08F5F09
:101840008093663880911A38882371F040911B3854
:1018500022EC31E0429FC001439F900D11240817F4
:10186000190710F00E941C04B80180912F380E94C3
:10187000350480913238882379F042EC51E0849F1E
:101880009001859F300D11242017310728F460E066
:1018900070E087E49DE003DCC0E0F4C0813B99F494
:1018A00081E090E00E94AC038CDF809119388111B7
:1018B000F3CF80910C38811103C00831110560F31A
:1018C00061E070E028C0813ED9F3813821F4809135
:1018D0000A3890E015C0813C21F460910A3870E02C
:1018E0001AC0823B91F41092663880910D38909125
:1018F0001738911180911838811105C086E990E060
:101900000E94AC0310C086E90EC0823E59F0823CB2
:1019100029F466E970E086EC98E0BDCF833929F4BC
:101920001092573880E04DDFB7CF833C29F460E058
:1019300070E08EE79BE0AFCF843C11F447DAA7CF8D
:101940008D3B49F4F89491E088ED84BF90930001B9
:101950007894A895FFCFC09117388F3CE1F4CC2341
:10196000A9F010922F381092323883E380931A38FE
:10197000809310388093133881E08093163810924A
:10198000313880932138109218380EC060E070E032
:101990008CED94E071C08A3B79F4672B69F4CC2319
:1019A00029F014DA1092173858D876CF60E070E03A
:1019B0008CE59BE05CDB66C0CC2371F0863C09F0D3
:1019C00060C080911638843008F45BC0FFD960E0B5
:1019D00070E08BE391E15FCF873CB1F480912F38C9
:1019E000982F92959F709F5F937040E1949F900114
:1019F00011248F70822B80932F3860E070E00E945A
:101A000035042BD8E3D93EC0873BD1F481E08093E5
:101A10006138C8018F739927892B61F490912F3811
:101A2000892F8F708F5F292F207F6BE0F3D7922B48
:101A300090932F38B80180912F380E94350422C02E
:101A4000873E19F4109261380DC0833B29F460E0A1
:101A500070E087E49FE010C08A3C39F4B7D981E098
:101A6000809317380E942D050DC0853C39F4AED9FE
:101A700060E070E083EF90E112DB04C0863C09F483
:101A8000A5CFC1E08C2FCF911F910F9108950F9397
:101A90001F93CF93DF93C82F8B01873B19F480E00E
:101AA0005DD980C080798039B1F420910E38909151
:101AB0000F388C2F8F70813021F4822F921748F4C9
:101AC00007C080911A38811104C0822F291708F4A9
:101AD000892F77DE0FC0803811F480E072DEC830C5
:101AE00049F41092663860E070E0809130380E94CE
:101AF000350458C0C13039F40931110508F49AC0D1
:101B0000C0936F381BC0C330F9F4809166388F3FA3
:101B100019F08F5F8093663880911A38882371F0AE
:101B200040911B3822EC31E0429FC001439F900D51
:101B300011240817190710F00E941C04B8018091A5
:101B400030380E94350476C0C33C31F43FD960E0A0
:101B500070E083EF9BE014C0C43C21F460910A382C
:101B600070E00CC0C43B31F43FD91092CC3861E036
:101B700070E004C0C53C31F466E970E086EC98E0A2
:101B80008EDA58C0C33B71F4C8016EE370E04ED7E3
:101B9000892B41F460E070E083ECDF91CF911F91DD
:101BA0000F91D8CDD0911738D11146C0C73CB9F4A8
:101BB00080913038982F92959F709F5F937040E18D
:101BC000949F900111248F70822B8093303860E0B5
:101BD00070E00E9435040E942D05F8D82EC0C73B46
:101BE000D1F481E080936138C8018F739927892BE4
:101BF00061F490913038892F8F708F5F292F207F6B
:101C00006BE008D7922B90933038B8018091303830
:101C10000E94350412C0C73E29F4109261380E9418
:101C20002D050BC0CA3B41F460E070E08CE69BE000
:101C30001EDA03C0D0E001C0D1E08D2FDF91CF913B
:101C40001F910F9108950F931F93CF9310927238A5
:101C50008091CA389091CB389C012F5F3F4F8827E5
:101C60009078822B932B8093CA389093CB38C09175
:101C700070380E943002C81731F110926F3880938B
:101C800070389091CC38882359F0892F80699F70E3
:101C90009F3009F08F5F8093CC3880E090E00DC0DA
:101CA000892F8F7E95FD02C0806801C0806C809373
:101CB000CC388091CA389091CB380E94F5011092AF
:101CC000CA381092CB380091CA381091CB38809125
:101CD0006F388823B1F0B80183E00E94A4010E940C
:101CE000BE010134110528F00F701127012B09F0F6
:101CF00047C01092413881E0809399380E941802C1
:101D000032C0C091CC388C2F807F803B19F460E0CA
:101D100070E001C0B80181E00E94A401C4FF13C0BB
:101D2000C5FF02C0C8010CC008311105E0F01092D7
:101D3000CA381092CB38C062C093CC3880E090E0B3
:101D40000E94F50110C0CC2371F0C5FD0AC002311C
:101D5000110548F0C064C093CC3880E090E00E9448
:101D6000F5010E94F901C0914138C11105C00E94DE
:101D70009B0181E080938D38CF5FCF71C093413854
:101D8000CF911F910F9108958091983881110E94F1
:101D9000510580917238811156CF0895EF92FF92CC
:101DA0000F931F93CF93DF93EC0102E418E080E1DF
:101DB000E82E82E0F82E2097D9F0809167388111C3
:101DC00019C080916D38853028F485E00E9490011B
:101DD000C70104C081E00E949001C8010197F1F79A
:101DE00081E00E949001D0DF0E94BE012197E3CFE5
:101DF00081E001C080E0DF91CF911F910F91FF90B2
:101E0000EF9008950F931F93CF93DF93C82F8823EC
:101E100011F006EA02C00AE0C1E0D0916E3810E08D
:101E2000809120380CD889E10E94AE06D0936E389C
:101E3000C801B4DF8091203802D880E00E94AE064D
:101E4000D0936E388AEF90E0A9DFC15049F78D2F0B
:101E50000E941F078AE992E0DF91CF911F910F91B5
:101E60009DCFCF93DF9364E6D5D5282F892F6AE0E5
:101E7000D1D5EC01222341F0822FC4DF8C2FC2DFA9
:101E80008D2FDF91CF91BECFC111F8CFF9CFFF9247
:101E90000F931F93CF93DF93D82F8B01C0915A38A4
:101EA00081E080935C38C33009F0EDC0F090603879
:101EB0008D2F0E944C07FF2051F0809160388111D6
:101EC00006C060E070E083EF9BE0E9D8DCC0D8306A
:101ED00021F481E080930338D8C0D23C19F41092E9
:101EE0006038E6C0D13BC1F490910238012B49F42F
:101EF000983210F08FEF03C0923018F481E0809395
:101F0000033880910338890F11F481E04EC1893282
:101F100008F44BC188E249C1D13E31F480910338C5
:101F200081958093033815C1D23B61F481E08093A1
:101F3000033880910238823008F413C181508093B5
:101F400002380FC1D13009F0B7C00932110511F4C0
:101F5000D093033890913938892F880F97FD809559
:101F600027E0829FC001112430913838232F220F9F
:101F700037FD209580910138289F90011124232F4F
:101F8000290F90913738892F880F97FD8095909170
:101F90000038899FC0011124822F890F6091023877
:101FA00070E0680F711D809160388130B9F48091C4
:101FB0005D3890915E3825E0969587952A95E1F7F2
:101FC00024E730E0A901481B590B469FC001479FF9
:101FD000900D569F900D1124B90128D5862F0E948F
:101FE000AE0600FD08C00E94390281709091393818
:101FF000890F809339389091383880913638890F1D
:10200000809338380E94390265E204D580913738D0
:10201000980F909337380E9439028F7331F40E94E1
:1020200039026DE0F7D490933638C0910138CC2353
:1020300039F00E9439028F7319F4C150C0930138EE
:102040000E943902811108C00E9439026BE0E2D47B
:102050009093013810923838C0910038C33038F06E
:102060000E9439028F7119F4C150C09300380E9448
:1020700039028F7709F0A5C00E94390266E0CAD400
:10208000909300389EC0D83041F4809122388093DC
:102090005A3881E0809304388AC0D13C39F460E03A
:1020A00070E083EF9BE00E944F0881C0D23C31F486
:1020B0008C2F90E0019617C0D13C89F3D33C71F48A
:1020C00080916E388F5F87700E941F07EC2FF0E0C1
:1020D000E45FF74C80916E38878B56C0D43C59F43E
:1020E0008C2F90E0049665E070E0B4D480932238A1
:1020F00080935A3849C0D13B51F5C23090F400FD6D
:1021000056C0EC2FF0E0E45FF74C848D90910438DA
:10211000891B883020F08F3F99F58EEF31C088E021
:102120002FC0C43009F043C090912A388091043800
:10213000890F823010F482E003C08F3608F08EE6FB
:1021400080932A3880912A380E94AE0630C0D13E52
:1021500031F48091043881958093043815C0D23BC6
:1021600089F481E080930438C23018F500FD1FC067
:10217000EC2FF0E0E45FF74C848D8F3FC1F08F5F70
:10218000848F15C0D23E19F40E942D0510C0D53C95
:1021900041F460E070E083EF90E10E944F0880E03E
:1021A000D3CFD13071F081E018C08093023880E045
:1021B00014C0C430E1F780912A38833018F281507E
:1021C000BFCF0932110519F481E080930438809162
:1021D0006A38080F00936A38EACFDF91CF911F91D8
:1021E0000F91FF9008950F931F93CF93DF93D82FF4
:1021F0008B01883031F480915C38882311F088E0BD
:1022000046DE8D2F8079803961F481E080935B38E0
:10221000C0915C38C1110CC080910A380E94AE0692
:1022200024C0803839F410925B3880E00E94AE06FA
:10223000C0E01BC0D130C1F4C0915B38CC2359F051
:1022400080915C388823A1F3B80181E0DF91CF91C0
:102250001F910F911CCE80E00E944E020733114067
:1022600038F3D0936F3801C0C1E08C2FDF91CF914C
:102270001F910F910895EF92FF921F93CF93DF93D9
:10228000C82F7B01D0910A388079803951F5EC2F25
:10229000EF70E43020F010925B3810E036C091E02F
:1022A00090935B38F0E0E45FF74C86A12FEF280FA6
:1022B000263948F480930A3810925C3880911C3893
:1022C00080936E380CC090935C388739D0F090E0E2
:1022D0008759910965E070E0BDD380935A3810E0CA
:1022E0000BC0803841F410925B3880E00E94AE064B
:1022F00081E08093673811E080915B38882329F072
:1023000001C010E0B7018C2F6EDFD0930A38C830BF
:1023100021F4B70188E0BBDB20C0C13039F48091E3
:102320005B38811127C0B70181E004C0C33041F49C
:10233000B70183E0DF91CF911F91FF90EF90A7CB82
:10234000C33CC1F0C63C49F40E94E60660E070E080
:1023500083EF9BE00E944F080DC0D0911738D11138
:102360000BC0C73B59F460E070E080E79BE00E943F
:10237000370805C0D0E003C0D1E001C0D12F8D2FB8
:10238000DF91CF911F91FF90EF9008951F920F92D0
:102390000FB60F9211242F933F938F939F93AF9378
:1023A000BF93EF93FF9381E080930B068091973862
:1023B000882331F1E09196388091100690911106B2
:1023C00024E0880F991F2A95E1F7F0E0EE0FFF1F38
:1023D000DF01AE56B74C8D939C93E257F74C2081AA
:1023E00031812817390710F42F5F3F4F8217930769
:1023F00010F4215031092083318381E08093983893
:1024000081E080939738FF91EF91BF91AF919F91B9
:102410008F913F912F910F900FBE0F901F901895A5
:102420001F920F920FB60F9211248F9381E0809329
:102430005301809372388F910F900FBE0F901F90B1
:1024400018951F920F920FB60F9211248F931D9A19
:1024500081E0809371388F910F900FBE0F901F9085
:102460001895F89480914000877F8093400088ED14
:10247000A89584BF90910001907F9093000121E086
:1024800030E084BF2093610083E084B98EE088B996
:1024900088E0809310048093110480931204809349
:1024A00013048093140499E0909315048093160408
:1024B0008093170480933204809333048093340410
:1024C000809335048093500487E38093010A91E060
:1024D0009093000A2FEF30E02093360A3093370AAA
:1024E0008091120481608093120490935201809134
:1024F00051018111FCCF81E4809350010E941802A8
:10250000789481E00E94030260E070E08DE598E03D
:102510000E943708109267380E94E6060E94300237
:10252000811117C08CE098E38093683890936938E4
:1025300082E00E940302F89480E090E0CFD2853AD6
:1025400009F044C00091683810916938C1E0D0E0CA
:1025500034C0C0E08C2F0E94AE0683E190E01EDC08
:102560008C2F86950E94AE0683E190E017DC0E94D6
:1025700030028823B9F0CF5FC03461F760918A38A8
:1025800080912E38681B81E00E94E7040E942D058F
:10259000C6E98C2F0E94AE0684E090E0FFDBC150BC
:1025A000C1F7C0CFCC2309F4BDCF8C2F0E94AE065B
:1025B0008DE090E0F3DBC150F5CFCE018FD2F80172
:1025C00081938F012196CB32D105B9F77894809110
:1025D0001A3881110E941C0460E070E08AEA9BE0D6
:1025E0000E94370861E070E083EF9BE00E943708AB
:1025F000442443942224239447E0342ECC24C394CF
:10260000D12C65E0562E7CEF672E73E0772EE8EE36
:102610008E2EE3E09E2EF3EFAF2EFBE0BF2E0E9446
:10262000BE018091753890917638009751F0609195
:102630007338709174380E944F0810927538109258
:10264000763880916F38882309F466C080E00E9454
:10265000AE0640925201809151018111FCCFF9E503
:10266000F0935001809100068E7F809300060E94B7
:1026700030028111FCCF0E94F90180911204816027
:102680008093120410929838109272381092713818
:1026900080916F38882369F180919938882329F0D7
:1026A00080915000897F826004C080915000897FB2
:1026B000846080935000809150008160809350002E
:1026C0008895809150008E7F809350008091713862
:1026D000811110926F3880919838882321F02092D0
:1026E0008D380E94510580917238882389F2ABDAC7
:1026F000CFCF22E020930B3880911204887F809303
:1027000012040E94180240925201809151018111DD
:10271000FCCF31E43093500137DB10926738809161
:10272000883890918938E4E08C3D9E0719F5CCE714
:10273000D0E0FE0184918053803110F463DB11C03E
:1027400010E0812F81708295880F807E0E94AE06F6
:1027500080E190E023DB1F5F193199F78AE992E06D
:102760001DDB8CE291E01ADB2196F0E0C338DF0735
:1027700001F7D6C02FE08734920799F030E1833F0C
:10278000930729F0E1E18B339E0709F0B2C0209155
:102790005C38213009F0ADC020915B38222309F468
:1027A000A8C0C0915A38EC2FF0E0E45FF74C87895D
:1027B00080936E38C230F1F020F0C43009F47CC050
:1027C0002ECFD48D86E90E94AE06C11109C0DA323F
:1027D00020F4C3010197F1F707C081E090E003C046
:1027E0008D2F869590E0DADA80E00E94AE068D2F7C
:1027F00090E0FDC00E9439028F73E82EF12C0E94F8
:102800003902632D07D1E60102C0CC0FDD1F9A9576
:10281000E2F70E943902652DFDD0960102C0220F19
:10282000331F9A95E2F7C20FD31F0E94390290E03E
:10283000BE0110D1C80FD91FC739D10514F0C6E9A0
:10284000D0E08C2F0E94AE06C701A8DA8E0133E0DB
:10285000159507953A95E1F7011101C001E010E0E7
:10286000C7019CDAC01BD10BD7FF02C0C0E0D0E08B
:102870008C2F0E94AE060E943902837039F4C70182
:102880008DDACE01959587950E94AE06C230D105AE
:102890003CF70E9439026DE0BDD0E60102C0CC0FCA
:1028A000DD1F9A95E2F70E94390290E0BE01BED08A
:1028B000C80FD91F80E098C0C0912A38CC0FC73903
:1028C00008F0C6E9D4E08C2F0E94AE0685E090E0C7
:1028D00065DA80912A380E94AE0681E490E05EDAE3
:1028E000D15089F780ED92E059DA80E00E94AE067F
:1028F00096CE3BE08E379307E1F488EE93E04EDA14
:1029000080918C38652D86D0ACDA80918C38652D1D
:1029100081D0892F880FA5DA80911738882381F01C
:10292000A0927538B092763810927338109274383D
:1029300076CEE8E08C3A9E0731F480918A3891DABD
:1029400088EE93E054C083589840C1F48091703869
:10295000811165CE80910A380E94AE0684E690E02F
:102960001DDA80E00E94AE0620912B38289DC00120
:10297000299D900D11248456910939C080912138E8
:102980008823B9F180915738882399F120916D38C7
:102990009091583829130AC0822F0E94AE061092D7
:1029A00057388091593880936C3839CE60915638B9
:1029B000291760F4892F821B2DD0811101C081E07D
:1029C000820F0E94AE068AE090E011C03EE1639F54
:1029D000A001112460915938691B70E0CA013AD0F6
:1029E000EB0121968FEF820F0E94AE06CE01D6D961
:1029F00016CE80915000897F8093500080915000C6
:102A00008160809350008895809150008E7F8093E4
:102A1000500005CE991B79E004C0991F961708F065
:102A2000961B881F7A95C9F780950895AA1BBB1B32
:102A300051E107C0AA1FBB1FA617B70710F0A61BBE
:102A4000B70B881F991F5A95A9F780959095BC01DF
:102A5000CD01089597FB072E16F4009406D077FD5C
:102A600008D0E4DF07FC05D03EF4909581959F4F98
:102A70000895709561957F4F0895A1E21A2EAA1BC3
:102A8000BB1BFD010DC0AA1FBB1FEE1FFF1FA2171E
:102A9000B307E407F50720F0A21BB30BE40BF50B1B
:102AA000661F771F881F991F1A9469F760957095A4
:102AB000809590959B01AC01BD01CF010895A29F27
:102AC000B001B39FC001A39F700D811D1124911D02
:102AD000B29F700D811D1124911D089503D0808136
:102AE00099270895FC01E050FC4E0895262FFADF47
:102AF0000080021611F004D0019701970895262F47
:102B0000AF93BF93E0E0F0E1328131FDFDCFDC0116
:102B1000A050BC4E2C933DE934BF23E020830196A6
:0A2B2000BF91AF910895F894FFCF24
:102B2A000203010E381138143802010000000000B7
:102B3A0000000100000000000000000100009101F7
:102B4A00A502AF03B904C305CD06DC07FF07D90206
:102B5A000203AD02D702B302D702B902D702BF02FB
:0E2B6A00D702C502D702CB02D702D102D70292
:102B7800060B18010101000486014402010201014B
:102B88000186868601080801000144010001000051
:102B9800000003000000000029436E0207270029F7
:062BA800190401989B7660
:00000001FF
