:100000006BC1000086C100000C94A51482C10000E1
:1000100080C100000C9496147CC100007AC10000DD
:1000200078C1000076C1000074C1000072C10000F8
:1000300070C100006EC100000C9458146AC1000029
:1000400068C1000066C1000064C1000062C1000018
:1000500060C100005EC100005CC100005AC1000028
:1000600058C1000056C1000054C1000052C1000038
:10007000303133352E302E000001050414101115D7
:10008000FF3F5235DB291C3C7E2E0320E3316A26DC
:10009000E22F6F34B82BAB2EFC2F4B30EF2F202FDD
:1000A000FF2DA42C1F2BCD2CDD2A7C2B6329692945
:1000B0004627F3266926B725A223DB220022192131
:1000C00028200420FC1EF41DF01CF01BF51A001A59
:1000D00011192A1849170F1644152B1423132D1222
:1000E00046116E10650F710E8E0D8A0C9B0B930AD4
:1000F000A209C508B007B506D105E304ED03F40273
:10010000FF01FF01FF01FF01FF01FF01FF01FF01EF
:10011000FF01FF01FF01FF01FF01FF01FF01FF01DF
:10012000FF01FF01FF01FF01FF01FF01FF01FF01CF
:10013000FF01FF01FF01FF01FF01FF01FF01FF01BF
:10014000FF01FF01FF01FF01FF01FF01FF01FF01AF
:10015000FF01FF01FF01FF01FF01FF01FF01FF019F
:10016000FF01FF01FF01FF01FF01FF01FF01FF018F
:10017000FF01FF01FF01FF01FF01FF01FF01FF017F
:10018000FF01FF01FF01FF01FF01FF01FF01FF016F
:10019000FF01FF01FF01FF01FF01FF01FF01FF015F
:1001A000FF01FF01FF01FF01FF01FF01010001004D
:1001B0000100020002000200030003000400050029
:1001C000050006000700080009000A000B000C00EB
:1001D0000D000F001000120013001500160018008B
:1001E0001A001C001D001F0021002300250028000C
:1001F0002A002C002E003000320034003600380077
:100200003A003B003D003E003F00400041004200FC
:10021000420042004200410040003E003C003A00E3
:10022000360032002E00290023001C0014001500A7
:100230001600180019001A001B001D001E002000E7
:10024000210023002500260028002A002C002E0073
:10025000300032003500370039003C003F004100DB
:10026000440047004A004D005000530057005A0018
:100270005E00620066006A006E00720076007B001D
:100280008000840089008E00940099009F00A400E3
:10029000AA00B000B700BD00C400CA00D100D80059
:1002A000E000E700EF00F700FF000701100119016F
:1002B00022012B0135013E01480153015D01680116
:1002C00073017E018A019601A201AE01BB01C80142
:1002D000D501E301F101FF0111241FBECFEFD4E0EE
:1002E000DEBFCDBF11E0A0E0B1E0ECEDFFE202C067
:1002F00005900D92AC3BB107D9F722E0ACEBB1E031
:1003000001C01D92A635B207E1F70E94B4140C9407
:10031000EC1776CEF89498ED9FBD83BF789408953E
:10032000482F9B01E3E2F2E080E090E0508155230A
:1003300031F00196339680319105C1F70AC063E030
:1003400070E00E945317FC01ED5DFD4F4083328346
:10035000218308950F931F93CF93DF93D0912302AE
:10036000DD2351F10091240210912502C091000279
:10037000C150C7FD0DC0EC2FEE0FFF0BEF5FFD4F1F
:100380000190F081E02DB8018D2F09958111F0CFFA
:10039000E3E2F2E08381808384819581928381838B
:1003A000339682E0E035F807A9F7109250021092D8
:1003B000520210925102D2CFDF91CF911F910F9133
:1003C0000895BC0180915502ABCF10925502109256
:1003D00054021092530281E08093F00108950F932C
:1003E0001F93CF93C82F08EA17E0CC2349F082E08F
:1003F00091DFC8010197F1F780E08CDFC150F5CFA4
:10040000CF911F910F91089586E884B9E1E6F0E05D
:1004100080818260808388E082B910921F021092EE
:1004200020028FEE83B90895AF92BF92CF92DF92F0
:10043000EF92FF920F93CF93DF935C016B01EA0180
:100440007901BA0180E090E0202F30E040E050E0F8
:100450000E94641761587F4F8F4F9F4F2FEF30E0FE
:1004600040E050E00E94B017C901BE01621B730B4F
:10047000E216F30630F48E199F09680F791FC70141
:1004800009C0E616F70630F4C9018E199F09860FD8
:10049000971FB701F50171836083F6019183808313
:1004A000DF91CF910F91FF90EF90DF90CF90BF90B1
:1004B000AF900895E0910701F09108013196FB702B
:1004C000F460F0930801E09307018091F3018B5AE7
:1004D0008093F301E4918091F3018E0F08950F93BF
:1004E0001F93CF93DF9300D01F92CDB7DEB720913B
:1004F0005101309152014091530129833A834B833A
:10050000FE01319640E050E090E061E070E0B19192
:100510009A01220F331F8C0102C0159507952A9569
:10052000E2F79801237061F02130D1F4A0B39B0170
:1005300001C0220FBA95EAF7322F30953A2318C03E
:10054000A0B39B0101C0220FBA95EAF720953A2F7C
:10055000322330BB32B3322332BB31B323230EC03C
:10056000A0B39B0101C0220FBA95EAF73A2F322BB4
:1005700030BB32B3322B32BB31B3232B21BB4F5FA5
:100580005F4F4330510519F60F900F900F90DF9198
:10059000CF911F910F910895811102C081E001C098
:1005A00082E09DCF811102C085E001C08AE097CF33
:1005B000811102C084E001C088E091CF811102C0A6
:1005C00084E101C088E28BCF811102C080E101C0CB
:1005D00080E285CF811102C081E101C082E27FCF3C
:1005E000811102C085E101C08AE279CF81E00895DE
:1005F0009C01A0916C00B0916D00E0916A00F091B7
:100600006B00892BC1F461157105A9F410926D007E
:1006100010926C0010926B0010926A008FEF91E0C4
:10062000909369008093680010926F0010926E00A2
:100630008898899808952115310511F0889A01C08C
:1006400088986115710511F0899A01C0899881E037
:10065000AB2B09F480E091E0EF2B09F490E0982BAC
:1006600030936D0020936C0070936B0060936A0070
:10067000992351F09A012052310960916E007091D6
:100680006F0026173707C8F350936900409368003E
:10069000911104C010926F0010926E000895282FDF
:1006A00030E0220F331FF901E455FE4F85919491FC
:1006B000F901E058FF4F4591549160E070E098CF08
:1006C00090E0880F991FFC01E455FE4F65917491ED
:1006D000FC01E058FF4F4591549180E090E088CFB5
:1006E000282F30E0220F331FF901E455FE4F85918A
:1006F0009491F901E058FF4F45915491BC0178CF96
:10070000EF92FF920F93CF93DF9300D000D0CDB73D
:10071000DEB790E0880F991FFC01E455FE4F45912C
:100720005491FC01E058FF4FE590F490E091F701FF
:10073000F0E0E35FFE4F05899701BE016F5F7F4FD9
:10074000CE01039671DE69817A81A7018B819C813C
:100750004FDF0F900F900F900F90DF91CF910F917F
:10076000FF90EF900895CF92DF92EF92FF920F9358
:10077000CF93DF9300D000D0CDB7DEB790E09C01DF
:10078000220F331FF901E455FE4FE590F490F90173
:10079000E058FF4FC590D4906FEF70E00E94531760
:1007A00066E970E00E948917062FE091F701F0E0FA
:1007B000E35FFE4F858986FD00959601A701BE0186
:1007C0006F5F7F4FCE0103962FDE69817A81A6018C
:1007D0008B819C810DDF0F900F900F900F90DF9118
:1007E000CF910F91FF90EF90DF90CF9008952091DF
:1007F0006C0030916D002817390738F420916C0097
:1008000030916D002F5F3F4F0DC020916C003091F3
:100810006D008217930750F420916C0030916D00A9
:100820002150310930936D0020936C0020916A00B3
:1008300030916B002617370738F420916A00309109
:100840006B002F5F3F4F0DC020916A0030916B000D
:100850006217730750F420916A0030916B002150A9
:10086000310930936B0020936A0020916C00309125
:100870006D008217930741F420916A0030916B005C
:1008800081E06217730709F080E00895E82FF0E037
:10089000EE0FFF1FE455FE4F8591949160E070E0EC
:1008A000A6CFE82FF0E0EE0FFF1FE455FE4F659155
:1008B000749180E090E09BCFE82FF0E0EE0FFF1FF7
:1008C000E455FE4F85919491BC0191CF0F93CF9346
:1008D000DF9300D000D0CDB7DEB790E0880F991F2E
:1008E000FC01E455FE4F45915491FC01E058FF4F47
:1008F00025913491E091F701F0E0E35FFE4F058927
:10090000BE016F5F7F4FCE0103968EDD69817A81D4
:100910008B819C816CDF0F900F900F900F90DF9177
:10092000CF910F910895EF92FF920F93CF93DF93A2
:1009300000D000D0CDB7DEB790E09C01220F331F6E
:10094000F901E455FE4FE590F490F901E058FF4FAE
:10095000259134916FEF70E00E94531766E970E0C3
:100960000E948917062FE091F701F0E0E35FFE4F48
:10097000858986FD0095A701BE016F5F7F4FCE017F
:10098000039652DD69817A818B819C8130DF0F90E3
:100990000F900F900F90DF91CF910F91FF90EF90FC
:1009A0000895CF93DF9300D000D000D0CDB7DEB74D
:1009B00090910D0120911102309112022F503D4073
:1009C00009F492E0843019F46093190121C0662380
:1009D000F9F0823019F427E9261B622F26E0E4E5BE
:1009E000F1E0DE01119601900D922A95E1F7E82FD2
:1009F000F0E03197EE0FFF1F21E030E02C0F3D1F9C
:100A0000E20FF31F0190F081E02DE90FF11D6083EB
:100A100026960FB6F894DEBF0FBECDBFDF91CF9103
:100A20000895813019F460933A010895823011F4E9
:100A3000609350010895BF92CF92DF92EF92FF92A0
:100A40000F931F93CF93DF93EC0140910D01909191
:100A50001801992311F0E2E001C0E42FF0E0E35F18
:100A6000FE4F228120930A01858180930901E92F9D
:100A7000F0E0E35FFE4F3185622F70E0442349F0E0
:100A8000313039F49B01280F311DC90195958795A7
:100A900038C0C617D707A4F1682F70E06C177D0720
:100AA00084F1411102C08C2F2CC0821B032F10E057
:100AB00001501109E82EF12CC701B8010E949D17C1
:100AC0006093ED016695E62FF0E0822FC12CD12CCA
:100AD000B12CB316B1F0C601B8010E948917822F5C
:100AE000860FCE0CDF1CAE01481B510957FF03C017
:100AF000519541955109E417F5071CF4B394E9CFDA
:100B0000822FDF91CF911F910F91FF90EF90DF9097
:100B1000CF90BF90089580911B0180930B0180912D
:100B2000200180931D018093F701E2E2F1E08485CA
:100B3000819381E0EE32F807D1F708958091E901C1
:100B4000882351F09091F6019093EC018093E80195
:100B50001092E7011092E601089581E00895823035
:100B600019F460934B010895611160934601089553
:100B7000662389F0813061F48091130290914801DD
:100B8000891B681B6093480182E080930C0103C0BD
:100B9000635E6093470180914701873418F086E4D3
:100BA00080934701089560934C010895E82FF0E089
:100BB000E35FFE4F67AF08957FEF780F40911E010E
:100BC00050911F01662359F021E030E002C0220F4E
:100BD000331F7A95E2F7CA01822B932B0AC081E07A
:100BE00090E002C0880F991F7A95E2F780958423E0
:100BF000952390931F0180931E010895CF93DF9357
:100C00008DE091E09093F2018093F10182E0E7DBC7
:100C1000F894C0E0D0E0E091F101F091F201EC0F26
:100C2000FD1F60812196CE010E94DA17C434D105E0
:100C300091F765EA80E090E00E94DA177894DF91FE
:100C4000CF9108951092210280B191B12091F301CA
:100C50008295869586958370990F990F890F820FDB
:100C60008093F30180911602882309F41AC110922F
:100C7000160280911F029091F801992329F01F9884
:100C80001092220210921F02811151C080910C011A
:100C9000882329F080911B0290911C021AC0809138
:100CA000F80120911702309118028823B9F0809141
:100CB0001B0290911C0243E0969587954A95E1F7B7
:100CC000820F931F53E0369527955A95E1F7821BC3
:100CD000930B909318028093170201C0C9012091D1
:100CE00046012750220F6AE171E00E948917260F02
:100CF000209315028091DD01882311F0815007C0F7
:100D0000213938F460E070E084E00ADB85E080930C
:100D1000DD018091F8018111BBC08EE884B981E0CA
:100D200080931F02109220028FEE83B9B1C08130F0
:100D300009F0AEC080910C01882341F080911D0222
:100D400090911E0290931A028093190280911902C9
:100D500090911A02609148019C01A6E03695279572
:100D6000AA95E1F7062E000C770B260F371F2E50A1
:100D700031403093140220931302B5E09695879585
:100D8000BA95E1F720910C01211128C02091CC01E6
:100D9000E22FF0E0EE0FFF1FE353FE4F4081518141
:100DA000DC01A41BB50BAD01918380832F5F2770FD
:100DB0002093CC019D01220F331F220F331F820F7E
:100DC000931F2091470130E0261B370B225F3E4FD7
:100DD000220F331F821B930B23E00EC0EDECF1E0DA
:100DE00081939193B1E0ED3DFB07D1F7CFCF009711
:100DF00009F00196215029F018161906C4F7019739
:100E0000F9CF18161906E4F457FD39C02091CB012B
:100E100012160CF1880F991FBC016350710977FFFE
:100E200002C06F5F7F4F759567951616170614F011
:100E300061E070E088E1861B8093CB0185E026C0ED
:100E40008C3F2FEF9207DCF457FF19C02091CB01A4
:100E500027FF05C02450281B2093CB0118C024EE87
:100E6000281B2093CB0120911502233980F06CEFD1
:100E70007FEF681B790B7595679586E007C08091B9
:100E80001502823920F060E070E087E049DABCDAD0
:100E900080910C01882329F080910C01815080936E
:100EA0000C010895882321F0813031F4829805C027
:100EB000829892988A980895829A929A8A9A089526
:100EC000CF93C82F8091F601811109C0CC2339F04E
:100ED00080915001C81718F4F3DF82E080DA809126
:100EE000F80181110BC0FBDA91E0C11101C090E063
:100EF00081E0C73408F480E0890FD4DFC11108C055
:100F00004FEF51E060E070E080E090E071DB0FC0F7
:100F10008091F70190E065E070E00E9453178158DE
:100F20009E4FDC01ED91FC918FEF8C0F0995809124
:100F3000F601C8138093F501C093F601C093F40144
:100F4000C23010F482E005C0CA3010F481E001C064
:100F500080E0CF91DFC9CF93C091F60188E28C0F7A
:100F6000873908F080E0ACDF83E039DA8C2FCF914D
:100F7000A7CFCF93C091F60180E0A2DF83E02FDA04
:100F80008C2FCF919DCF8093EE019091F601981711
:100F900018F4282F291B02C0292F281B3091E001AB
:100FA000311106C030913B01332369F0223058F0F3
:100FB0008093E10184E08093DF0181E08093E00190
:100FC0009093E20108957CCF0F931F93CF9390915C
:100FD00015022FEF290F203920F480E080DA80E01D
:100FE0009EC0E82FEF702091EA01211125C0C82F83
:100FF000C295CF7020914B0130E043E0220F331FA8
:101000004A95E1F762177307C0F48091EF01482F0A
:1010100050E0421753078CF4882379F021E0809147
:10102000F5018F3008F420E081E0C23009F080E063
:10103000822BC1E0C80F36C0C2E0E73088F1E7304C
:10104000A9F40091C40110E00F5F1F4F33DA65E08F
:101050000E947D179801290F311DC90166E070E0DB
:101060000E949D178093C401FC013AC0E830D1F47E
:101070008091F801882311F02FE001C023E030E0D7
:1010800062237323672B51F48091C40190E0019691
:1010900066E070E00E949D178093C401E091C40156
:1010A000F0E01EC08091F801882381F080E0E82FF5
:1010B000F0E0E359FE4F2081921710F08E5FF7CFDA
:1010C0003197E081F0E0E858FF4F0CC0CB019695D6
:1010D000879563E070E00E948917FC01EE0FFF1F07
:1010E000E758FF4FE491C33071F48091C30190E061
:1010F000019663E170E00E9489178093C301DC01CF
:10110000A65ABE4FCC91CC2329F0C13029F0EE0F66
:10111000C2E002C0C0E0E0E08E2FE1D98C2FCF9179
:101120001F910F91BFCECF93DF939091F701981746
:1011300059F0C82FD091F60180E0C2DEC093F701CC
:101140008D2FDF91CF91BCCEDF91CF91089581306B
:1011500019F410921B010895823019F460931C0158
:101160000895833019F460931A010895843019F4B6
:1011700060930E010895853011F460933B0108954A
:10118000CF93C0911801C1114FC0883039F410922B
:10119000E9011092E7011092E60147C0813B81F41A
:1011A0008091E9018150833008F03EC083E0809354
:1011B000E9018093E8011092E7011092E60134C042
:1011C000853BB1F4CB016EE370E00E948917892B57
:1011D00061F58091E9018A3F40F58B5F8093E901D9
:1011E0008093E8011092E7011092E601B4DE1DC081
:1011F0008130D1F48091E6019091E7010196883821
:101200002EE0920728F49093E7018093E6010DC049
:101210001092E7011092E6018091E901882329F0FC
:1012200081508093E90101C0C1E08C2FCF910895D6
:10123000FF920F931F93CF93DF938C01EB01F42E5A
:101240008091110290911202892B31F0E0911102EC
:10125000F091120289E00995109312020093110295
:10126000012B39F0E0911102F0911202BE018F2D95
:10127000099581E08093F001DF91CF911F910F914B
:10128000FF900895CF93DF93E0910002EE2359F091
:10129000E150E0930002F0E0EE0FFF1FEF5FFD4F23
:1012A000C081D18102C0C0E0D0E0E0910002EE2315
:1012B00041F0F0E0EE0FFF1FE150FE4F8081918181
:1012C00002C080E090E04AE060E070E0B1DFCE0173
:1012D000DF91CF910895883029F41092DE011092A9
:1012E000C50115C0813001F59091C501911107C06C
:1012F0006032710570F18093C50167D82AC09130C2
:1013000089F46B3B710528F082E08093C50180E091
:101310001FC061157105E9F06270862F880F880F74
:101320008E5E16C0AFDF15C0813811F0813E89F4A2
:1013300091E09093C501813E21F48091DE01865FAA
:1013400003C08091DE018F5F8093DE013ED88BE485
:10135000B7DD80E008959C0190910002983088F4F8
:10136000E92FF0E0EE0FFF1FEF5FFD4F3183208389
:101370009F5F9093000248E0C9015ADF809100020C
:1013800008958FEF08950F931F93CF93DF93EC0190
:101390008B0178DFB801CE01DF91CF911F910F91C2
:1013A000DACF813C29F460E070E080E69EE006C080
:1013B000823C39F460E070E085E39DE0E4DF80E0AA
:1013C000089581E00895843011F580911102909183
:1013D000120221E1893D920729F469E170E08CE471
:1013E0009AE013C08C549A4061F49091F6019230C7
:1013F00040F0892F869596959695890FC4DD80E0FB
:10140000089560E070E080E69EE0BDDFF8CF81E007
:101410000895813C29F460E070E080E69EE006C01B
:10142000823C31F460E070E081ED99E0ACDF16C001
:10143000813B49F4CB016EE370E00E948917892B50
:1014400069F489DD0BC0813E59F4CB016EE370E095
:101450000E9489176F5F60934501D0DB80E008959B
:1014600081E00895813C29F460E070E080E69EE030
:1014700006C0823C31F460E070E089E09AE083DFEE
:1014800007C0873B39F460E070E08FE19DE063DFE7
:1014900080E0089581E00895BF92CF92DF92EF92AD
:1014A000FF920F931F93CF93DF93C82F8B018091EF
:1014B0001D018093F701D0900A01F09009018091FD
:1014C0000D01882319F0B090ED0102C0BB24B39444
:1014D000C0900E01809118018111C0901901CC209B
:1014E00051F081E0C81621F080910B018F1518F0A2
:1014F000F6E9EF2E01C0EF2CD091E901B8018C2F55
:101500003FDE8091E901882339F0D1110CC0909120
:10151000F6019093EC0107C0DD2329F060E070E054
:1015200080E69EE036C09C2F9D7F9830D9F41092C3
:10153000E501CA3019F400910B0110E08D2D90E007
:101540008017910738F48F2D90E00817190710F4D1
:1015500000930B01C8016FDA16DD81E0809306016C
:10156000D0E0E7C1C13CD1F2C23C59F48091F60110
:101570008E1510F48E2D02C080910B0104DDDEDA91
:10158000EFCFC43C41F480E09BDC60E070E086EB90
:101590009FE0F9DEE5CF9FE49C0F923008F05DC03C
:1015A00080910D01882341F0C80168E170E00E943C
:1015B0008917892B31F0D4CF6091150170E0C801F3
:1015C000F6CFD091E001D111CBCF2091F6010115DA
:1015D000110561F4C23B11F48FEF05C02F15E0F740
:1015E000D21608F181E0809306011DC0E09115013B
:1015F000F0E0CF0166E371E00E9453178017910776
:1016000010F42F1548F7CF016CE672E00E945317D3
:101610008017910740F4D21630F09DDC60E070E056
:1016200086EB9FE0B0DEC091F601809106016B2D44
:1016300070E0082E000C990B0E9453178C0F911D1F
:10164000FAD980930B01C81719F0F81201C091DC88
:1016500080910B0198DC72DA6CC19FE19C0F923093
:1016600020F480910601819579CFC13009F089C0BD
:101670000932110511F4C0930601882379F1009114
:10168000EC0110E090E0B8010E945317EC01E091EA
:10169000E801F0E0BF010E949D17262FCE01801BBC
:1016A000910BBF010E949D17322F361B8091E601DE
:1016B0009091E7016EE370E00E948917832F90E01C
:1016C0000E9453176CE370E00E948917261B622F5B
:1016D00009F461E06093F4016093EE01C091F401BC
:1016E0002091F6018C2F90E0821B91096091C80136
:1016F0007091C9016F5F7F4F7093C9016093C801FA
:10170000009709F42DCF97FF05C0233830F040E44F
:1017100050E005C040E052E002C040E051E0569584
:10172000479597FD0196959587950097C1F74617C0
:10173000570708F015CFC21710F4CFEF03C02C17CE
:1017400010F4C1E0C20F8091F70190E065E070E015
:101750000E94531781589E4FDC011296ED91FC9127
:1017600013978FEF8C0F0995882331F0D091F401F6
:101770008C2FA6DBD093F4011092C9011092C801FE
:10178000EFCEC530A1F48091F601823408F4E8CEA2
:1017900090E0801B910B8134910534F087399105DD
:1017A0006CF186E990E02AC081E490E027C0C63061
:1017B000B9F49091F6018091EE01981708F0D0CE1F
:1017C000090F111D90E08017910734F001341105C5
:1017D00024F401E410E001C08C010093F401C0CEB8
:1017E000C73079F49091F4018091F601891710F4D3
:1017F0008F5F04C0981708F0B3CE81508093F40136
:10180000AFCEC33C19F0C63C41F517C060911E0134
:1018100070911F0180E090E020E0AB01082E02C033
:10182000569547950A94E2F74170240F01968C3043
:10183000910599F7223008F07BC081E090910D016D
:10184000911180E080930D01D9D993DB8091F6014D
:1018500090E0F1D880930B0191CED0911801D11175
:1018600067C08DE48C0F8230C0F4C33B69F4809173
:10187000F70190E065E070E00E94531781589E4F99
:10188000FC018481811154C0012B09F069CECC2068
:1018900011F086E9E82E8E2D16C08DE18C0F823076
:1018A000A0F4C33E71F48091F70190E065E070E030
:1018B0000E94531781589E4FDC0114968C91811120
:1018C00037C080910B015FDB34C0C53C61F480916F
:1018D000F60180930B0180E0F3DA60E070E082E8CB
:1018E00093E151DD26C0C73B29F460E070E08BE056
:1018F0009DE01CC0CA3CA1F48091F60180931B01BD
:101900008091F70180932001E2E2F1E08EE291E024
:10191000219123878E179F07D9F770D91CDB09C047
:10192000CA3B31F460E070E083E19DE014DD01C06A
:10193000D1E08D2FDF91CF911F910F91FF90EF900C
:10194000DF90CF90BF9008950F931F93CF938B019B
:10195000C42F883091F48091F7018093C7011092D1
:10196000C60180E0ADDA8091F90181114FC080910C
:10197000C6018F5F8093C60133C0982F907F903B44
:1019800021F58091C6014817E8F081508C3040F471
:101990009091EB01992321F09091F7018913C3DB1A
:1019A000C8016DE570E00E948917069749F480919F
:1019B000C6018F5F8093C601C81740F188E303C05A
:1019C00082E101C080E07CDA21C0903E79F4809110
:1019D000C6018823A1F0481790F08091C701A3DBCE
:1019E00060E070E08BE699E0B6DC10C08A3049F424
:1019F0006091DE018091C601F9010995FFD842DCB2
:101A000005C0893019F48091C7018DDB80E0CF914A
:101A10001F910F91089521ED34E043E095CF21ED22
:101A200034E044E091CF27EA38E045E08DCF21E172
:101A300035E042E089CF2FEA35E042E085CF28EB60
:101A400035E042E081CF23ED35E041E07DCF26ED6A
:101A500035E043E079CF91E09093EB012CED35E058
:101A60004CE072DF1092EB010895CF93C091180102
:101A7000C11125C0813C29F460E070E080E69EE061
:101A800006C0823C31F460E070E082E39AE07BDCE7
:101A900017C0833C61F48091210190E001966CE0D5
:101AA00070E00E949D1780932101A8D809C0873B50
:101AB00031F460E070E08BE19DE04DDC01C0C1E0FD
:101AC0008C2FCF910895CF92DF92EF92FF920F93D8
:101AD0001F93CF93DF93E091F701833CE1F40091F2
:101AE0001E0110911F018E2F2CE0CCE0D0E090E081
:101AF0000196BE010E949D17A801082E02C05695AE
:101B000047950A94E2F740FF03C0E81319C016C0D6
:101B1000215069F7FACFF0E0E35FFE4FC589833BC0
:101B200009F08CC06115710529F481E08093C20130
:101B30001092C1018091C201811109C0C1E0A4C00D
:101B4000F2DA8091F70180931D0158D89CC0309142
:101B5000050113161CF4CF3F39F455C0332309F4A3
:101B600052C0CC2309F44FC020913A012223A9F09E
:101B7000CB0168E170E00E948917892B09F083C0CE
:101B8000223008F44DC0622F70E0615071098EEF71
:101B900090E00E949D17862F01C081E0632F330FD4
:101BA000770B90E00E9453177C01EC0EF11CF7FCC0
:101BB00039C08FEFE816F10409F0B4F5211102C025
:101BC000CE2D33C0C22ED12C81E0C81AD1088FEFA0
:101BD00090E0B6010E949D176695E62FF0E000E0C8
:101BE00010E0C801B6010E948917C62FC701861BE5
:101BF0009109E817F907CCF401501F4F802F819508
:101C0000821778F312C08091C001C8130EC0809172
:101C1000C101811101C0ADD981E08093C10105C02E
:101C2000CFE703C0C0E001C0CFEFC093C001E09197
:101C3000F701F0E0E35FFE4FC58B14C0833EB1F4C3
:101C40001092C201C11102C081E005C0CF3F31F046
:101C50008091050181958093050102C0C093050123
:101C60000E94FE058091F6012BD90DC0C09118018C
:101C7000C11164CF893B09F061CF60E070E08BE275
:101C80009DE069DB01C0C0E08C2FDF91CF911F91F7
:101C90000F91FF90EF90DF90CF90089590913B01CE
:101CA000992369F08093E10188E08093DF0181E06E
:101CB0008093E0018091F6018093E201089500C9CC
:101CC0000F931F93CF938B018830A1F480E0E6DF60
:101CD0008091E001082B1092EF0180911D0180930B
:101CE000F7011092E901012B09F03EC081E08093D9
:101CF000F8013AC0813051F469317105A8F1C09101
:101D0000E001C11131C08093F8012BC1833071F51E
:101D10008091EF018F3F19F08F5F8093EF018091E9
:101D20001B01882361F080911C0190E062EC71E05E
:101D30000E9453170817190710F00E948B05B8016D
:101D40008091490141D980914C01882369F090E04C
:101D500062EC71E00E9453178017910728F460E04D
:101D600070E086EB9FE00FDBC0E0FBC0813B99F4A5
:101D700081E090E00E941B0591DF80911A018111A2
:101D8000F3CF80910D01811103C00831110560F37B
:101D900061E070E00DC0813ED9F3813821F480917B
:101DA0000B0190E017C0813C31F460910B0170E0B1
:101DB0008CE49AE0D8CF823B91F41092EF018091AD
:101DC0000E0190911801911180911901811105C0A6
:101DD00086E990E00E941B050EC086E90CC0823E99
:101DE00049F0823C19F466E970E0E2CF833929F4C6
:101DF0001092E00180E052DFB7CF833C29F460E02D
:101E000070E085E39DE0AFCF843C11F4A4D8A7CF68
:101E10008D3B41F4F89488ED8FBD88E880BF7894BD
:101E2000A895FFCFC09118018F3CE1F4CC23A9F015
:101E30001092490110924C0183E380931B0180931F
:101E400011018093140181E08093170110924B01DE
:101E500080933B01109219010EC060E070E08DEAA2
:101E600095E06FC08A3B79F4672B69F4CC2331F09D
:101E700072D8109218010E94FE0576CF60E070E0E3
:101E80008FE09DE06BC0CC2371F0863C09F068C008
:101E900080911701843008F463C05DD860E070E081
:101EA0008DEC93E160CF873CA1F490914901892F9B
:101EB00082958F708F5F83708295807F9F70892B52
:101EC0008093490160E070E07FD80E94FE0543D80E
:101ED00048C0873BD1F481E08093EA01C8018F7349
:101EE0009927892B69F490914901892F8F708F5F11
:101EF000292F207F6BE00E947D17922B9093490140
:101F0000B8018091490160D82CC0873E19F4109225
:101F1000EA010DC0833B29F460E070E089ED91E1B6
:101F200010C08A3C39F417D881E0809318010E94D0
:101F3000FE0517C0853C39F40ED860E070E082E8F9
:101F400093E121DA0EC0863C09F4A7CF893B41F426
:101F5000012B31F460E070E087E19DE0FCD901C025
:101F6000C1E08C2FCF911F910F9108950F931F9374
:101F7000CF93DF93C82F8B01873B21F480E00E9431
:101F800060077FC080798039B1F420910F01909172
:101F900010018C2F8F70813021F4822F921748F41A
:101FA00007C080911B01811104C0822F291708F4FA
:101FB000892F74DE0FC0803811F480E06FDEC830E6
:101FC00049F41092EF0160E070E080914A010E94B4
:101FD000E40757C0C13039F40931110508F498C03D
:101FE000C093F80118C0C330E1F48091EF018F3F36
:101FF00019F08F5F8093EF0180911B01882359F0C6
:1020000080911C0190E062EC71E04DD70817190730
:1020100010F00E948B05B80180914A010E94E407EC
:1020200077C0C33C39F40E94AB0760E070E080E603
:102030009EE015C0C43C21F460910B0170E00DC01E
:10204000C43B39F40E94B9071092550261E070E078
:1020500004C0C53C31F466E970E08CE49AE093D9A1
:1020600057C0C33B71F4C8016EE370E052D7892BAF
:1020700041F460E070E083ECDF91CF911F910F910C
:1020800022CDD0911801D11145C0C73CB1F4909137
:102090004A01892F82958F708F5F83708295807F30
:1020A0009F70892B80934A0160E070E00E94E407F2
:1020B0000E94FE050E94AB072EC0C73BD1F481E011
:1020C0008093EA01C8018F739927892B61F490915D
:1020D0004A01892F8F708F5F292F207F6BE00DD7EA
:1020E000922B90934A01B80180914A010E94E40723
:1020F00012C0C73E29F41092EA010E94FE050BC0EF
:10210000CA3B41F460E070E083E29DE024D903C063
:10211000D0E001C0D1E08D2FDF91CF911F910F91C1
:1021200008950F931F93CF931092FB018091530258
:10213000909154029C012F5F3F4F88279078822B0B
:10214000932B90935402809353029091F9012FB1F5
:10215000822F8095881F8827881F8093F901981700
:1021600029F11092F8018093F90190915502892F7D
:1021700027FD0AC080699F709F3009F08F5F8093B0
:10218000550280E090E00CC08F7E95FD02C0806813
:1021900001C0806C8093550280915302909154024B
:1021A0000E94E101109254021092530200915302D6
:1021B000109154028091F8018823B1F0B80183E0B6
:1021C0000E9490010E94AA010134110528F00F70AD
:1021D0001127012B09F049C01092CA0181E08093B8
:1021E00022020E94040232C0C09155028C2F807FCF
:1021F000803B19F460E070E001C0B80181E00E940A
:102200009001C4FF13C0C5FF02C0C8010CC0083153
:102210001105E0F01092540210925302C062C09374
:10222000550280E090E00E94E10110C0CC2371F0E3
:10223000C5FD0AC00231110548F0C064C0935502C3
:1022400080E090E00E94E1010E94E5018091CA01D6
:10225000811105C08FEE83B981E0809316028091D1
:10226000CA018F5F8F718093CA01CF911F910F9127
:1022700008958091210281110E9422068091FB0124
:1022800081114FCF0895EF92FF920F931F93CF9339
:10229000DF93EC0100E317E08CECE82EFF24F394CD
:1022A0002097D9F08091F001811119C08091F60139
:1022B000823028F482E00E948A01C70104C080E0D5
:1022C0000E948A01C8010197F1F780E00E948A010B
:1022D000D0DF0E94AA012197E3CF81E001C080E016
:1022E000DF91CF911F910F91FF90EF9008950F9381
:1022F0001F93CF93DF93C82F882311F006EA02C003
:102300000CE0C1E0D091F70110E0809121010E9422
:10231000930888E20E946007D093F701C801B3DFF9
:10232000809121010E94930880E00E946007D09371
:10233000F7018AEF90E0A7DFC15039F78D2F0E9497
:1023400093088AE992E0DF91CF911F910F919BCF83
:10235000CF93DF9364E6D1D5282F892F6AE0CDD5BE
:10236000EC01222341F0822FC2DF8C2FC0DF8D2FA2
:10237000DF91CF91BCCFC111F8CFF9CFCF93DF93CD
:10238000D82FC3E080910B010E94600788EC90E099
:102390007ADFDD2319F080E991E075DF80E00E94AB
:1023A000600788EC90E06FDFC15061F7DF91CF915B
:1023B0000895FF920F931F93CF93DF93D82F8B0134
:1023C000C091E30181E08093E501C33009F0E7C0EB
:1023D000F090E9018D2F0E94C008FF2059F08091F4
:1023E000E901811107C060E070E080E69EE00E9494
:1023F000C309D5C0D83021F481E080930301D1C056
:10240000D23C19F41092E901DFC0D13BC1F49091A4
:102410000201012B49F4903210F08FEF03C092308B
:1024200018F481E08093030180910301890F11F476
:1024300081E04AC1813208F447C180E245C1D13E02
:1024400031F48091030181958093030111C1D23B46
:1024500061F481E08093030180910201823008F4ED
:102460000FC18150809302010BC1D13009F0B0C07F
:102470000932110511F4D09303019091BF01892F06
:10248000880F97FD809590E069E070E00CD5292FCA
:102490008091BE01682F660F87FD609580910101D4
:1024A00070E090E000D5290F8091BD01682F660F84
:1024B00087FD60958091000170E090E0F4D4920F68
:1024C0006091020170E0690F711D8091E901813016
:1024D00091F48091E6019091E70125E0969587952A
:1024E0002A95E1F724E730E0A901481B590BCA01FE
:1024F000DAD4B9010ED5862F0E94600700FD08C00E
:102500000E945A0281709091BF01890F8093BF0190
:102510009091BE018091BC01890F8093BE010E9401
:102520005A0265E2EAD48091BD01980F9093BD01F3
:102530000E945A028F7331F40E945A026DE0DDD47A
:102540009093BC01C0910101CC2339F00E945A0242
:102550008F7319F4C150C09301010E945A02811176
:1025600008C00E945A026EE0C8D4909301011092F4
:10257000BE01C0910001C33038F00E945A028F7131
:1025800019F4C150C09300010E945A028F7709F0DC
:10259000A7C00E945A02877080930001A1C0D83062
:1025A00041F480913C018093E30181E08093040138
:1025B0008DC0D13C39F460E070E080E69EE00E947E
:1025C000C30984C0D23C31F48C2F90E001961AC02C
:1025D000D13C89F3D33C89F48091F70190E00196D6
:1025E0006CE070E0AAD40E949308EC2FF0E0E35F67
:1025F000FE4F8091F70180AB56C0D43C59F48C2F2C
:1026000090E0049665E070E098D480933C0180935C
:10261000E30149C0D13B51F5C23090F400FD56C0F2
:10262000EC2FF0E0E35FFE4F85A990910401891B38
:10263000883020F08F3F99F58EEF31C088E02FC0B1
:10264000C43009F043C09091440180910401890F86
:10265000823010F482E003C08F3608F08EE680935B
:102660004401809144010E94600730C0D13E31F4A2
:102670008091040181958093040115C0D23B89F4B7
:1026800081E080930401C23018F500FD1FC0EC2FDB
:10269000F0E0E35FFE4F85A98F3FC1F08F5F85AB10
:1026A00015C0D23E19F40E94FE0510C0D53C41F47D
:1026B00060E070E082E893E10E94C30980E0D3CF3C
:1026C000D13071F081E018C08093020180E014C025
:1026D000C430E1F780914401833018F28150BFCFBC
:1026E0000932110519F481E0809304018091F3010E
:1026F000080F0093F301EACFDF91CF911F910F9163
:10270000FF9008950F931F93CF93DF93D82F8B01E2
:10271000883031F48091E501882311F088E049DEAA
:102720008D2F8079803961F481E08093E401C0913C
:10273000E501C1110CC080910B010E94600727C008
:10274000803839F41092E40180E00E946007C0E014
:102750001EC0D130D9F4C091E401CC2359F080914E
:10276000E5018823A1F3B80181E0DF91CF911F91AA
:102770000F911FCE80E00E946F0280E00E945207FE
:102780000733114020F3D093F80101C0C1E08C2F32
:10279000DF91CF911F910F910895EF92FF921F93B8
:1027A000CF93DF93C82F7B01D0910B0180798039C3
:1027B00051F5EC2FEF70E43020F01092E40110E0BE
:1027C00036C091E09093E401F0E0E35FFE4F87AD07
:1027D0002FEF280F263948F480930B011092E50162
:1027E00080911D018093F7010CC09093E50187391A
:1027F000D0F090E08759910965E070E09ED3809316
:10280000E30110E00BC0803841F41092E40180E055
:102810000E94600781E08093F00111E08091E40163
:10282000882329F001C010E0B7018C2F6BDFD09313
:102830000B01C83021F4B70188E098DB20C0C1301B
:1028400039F48091E401811127C0B70181E004C00F
:10285000C33041F4B70183E0DF91CF911F91FF9026
:10286000EF9084CBC33CC1F0C63C49F40E94AB0757
:1028700060E070E080E69EE00E94C3090DC0D09148
:102880001801D1110BC0C73B59F460E070E087E23A
:102890009DE00E94AB0905C0D0E003C0D1E001C0BB
:1028A000D12F8D2FDF91CF911F91FF90EF90089541
:1028B0001F920F920FB60F9211242F933F938F9375
:1028C0009F93AF93BF93EF93FF9380912002882350
:1028D000E9F0E0911F0220B131B1F0E0EE0FFF1FEF
:1028E000DF01A55EBD4F2D933C93E95EFD4F8081D6
:1028F00091818217930708F401962817390708F485
:1029000001979183808381E08093210281E080930D
:102910002002FF91EF91BF91AF919F918F913F91D5
:102920002F910F900FBE0F901F9018951F920F922E
:102930000FB60F9211248F9381E08093FB018F914A
:102940000F900FBE0F901F9018951F920F920FB609
:102950000F9211248F9381E08093FA018F910F9051
:102960000FBE0F901F901895F89485B7877F85BF8D
:1029700088ED90E00FB6F894A8958FBD90B7977F3B
:1029800090BF0FBE88E08CB98FE780BB82EA80934E
:10299000720081E1809371008FEF91E09093690064
:1029A0008093680080E882BB87BD8CB788608CBF4D
:1029B000A89580E480BF0E940402789481E00E9480
:1029C000EF0160E070E083EE99E00E94AB091092A5
:1029D000F0010E94AB079FB1892F8095881F88273F
:1029E000881F8093F90197FF17C08DE091E09093C5
:1029F000F2018093F10182E00E94EF01F89480E0FF
:102A000090E0D0D2853A09F046C00091F1011091D2
:102A1000F201C1E0D0E036C0C0E08C2F0E94600718
:102A200083E190E030DC8C2F86950E94600783E183
:102A300090E029DC9FB1892F8095881F8827881F07
:102A40008093F90197FD13C0CF5FC03431F765E182
:102A500081E00E94B8050E94FE05C6E98C2F0E9405
:102A6000600784E090E00FDCC150C1F7BECFCC23FB
:102A700009F4BBCF8C2F0E9460078DE090E003DC4F
:102A8000C150F5CFCE018ED2F80181938F012196EE
:102A9000C534D105B9F7789480911B0181110E944A
:102AA0008B0560E070E083E69DE00E94AB0961E089
:102AB00070E080E69EE00E94AB0943E4442E52E0C1
:102AC000552E60E4862E7724739477E0672ECC240D
:102AD000C394D12CF5E09F2EA0E6AA2EAEE0BA2E2C
:102AE0000E94AA018091FE019091FF01009751F090
:102AF0006091FC017091FD010E94C3091092FF01D9
:102B00001092FE018091F801882309F44EC080E004
:102B10000E946007A89540BE1F989FB1892F80959D
:102B2000881F8827881F8093F90197FFF6CF0E949E
:102B3000E5018CB788608CBF109221021092FB01D6
:102B40001092FA018091F801882331F180912202DC
:102B5000882321F086B78F79806203C086B78F798A
:102B6000806486BF86B7806186BF889586B78F7E72
:102B700086BF8091FA0181111092F80180912102A3
:102B8000882321F0709216020E9422068091FB0198
:102B90008823C1F2C6DAD6CF50920C018CB7877F5A
:102BA0008CBF0E940402A89580BE63DB1092F001E6
:102BB0008091110290911202F5E08D3A9F0719F56C
:102BC000C0E7D0E0FE0184918053803110F48FDBA8
:102BD00011C010E0812F81708295880F807E0E9445
:102BE000600780E190E04FDB1F5F193199F78AE9B8
:102BF00092E049DB8CE291E046DB2196F0E0C737BA
:102C0000DF0701F7D0C021E1893D920799F033E158
:102C10008238930729F0E3E18D3C9E0709F0ACC0B0
:102C20002091E501213009F0A7C02091E401222381
:102C300009F4A2C0C091E301EC2FF0E0E35FFE4F86
:102C400080A98093F701C230C1F020F0C43009F4AC
:102C500076C046CFD5A986E90E946007C11103C09E
:102C600082E090E003C08D2F869590E00CDB80E041
:102C70000E9460078D2F90E009C10E945A028F7355
:102C8000E82EF12C0E945A02662D37D1E60102C0CF
:102C9000CC0FDD1F9A95E2F70E945A02692D2DD1C3
:102CA000960102C0220F331F9A95E2F7C20FD31F7D
:102CB0000E945A0290E0BE0140D1C80FD91FC73907
:102CC000D10514F0C6E9D0E08C2F0E946007C7013F
:102CD000DADA8E0133E0159507953A95E1F701119F
:102CE00001C001E010E0C701CEDAC01BD10BD7FF55
:102CF00002C0C0E0D0E08C2F0E9460070E945A0200
:102D0000837039F4C701BFDACE01959587950E948B
:102D10006007C230D1053CF70E945A026DE0EDD049
:102D2000E60102C0CC0FDD1F9A95E2F70E945A021D
:102D300090E0BE01EED0C80FD91F80E0A4C0C091C2
:102D40004401CC0FC73908F0C6E9D4E08C2F0E94AB
:102D5000600785E090E097DA809144010E94600767
:102D600081E490E090DAD15089F780ED92E08BDA3F
:102D700080E00E946007B4CE3DE085339307E1F424
:102D800088EE93E080DA80911502692DB6D0E0DA02
:102D900080911502692DB1D0892F880FD9DA8091E1
:102DA0001801882381F0B092FF01A092FE011092D9
:102DB000FD011092FC0194CEEAE082339E0731F4CB
:102DC00080911302C5DA88EE93E060C0FAE08930A2
:102DD0009F07B9F48091F901811182CE80910B0196
:102DE0000E94600784E690E04EDA80E00E9460076F
:102DF0008091450190E068EE73E055D084569109CA
:102E000045C0815D994049F480E0B8DA81E0B6DAE6
:102E100080E0B4DA80ED97E039C080913B018823EF
:102E2000B9F18091E001882399F12091F601309168
:102E3000E10123130AC0822F0E9460071092E00173
:102E40008091E2018093F5014BCE6091DF01231761
:102E500060F4832F821B51D0811101C081E0820F69
:102E60000E9460078AE090E011C0862F90E06EE13A
:102E700070E019D06091E201631B70E05ED0EB015D
:102E800021968FEF820F0E946007CE01FCD928CED9
:102E900086B78F7986BF86B7806186BF889586B7EB
:102EA0008F7E86BF1DCE0024552704C0080E591FF3
:102EB000880F991F009729F076956795B8F37105EB
:102EC000B9F7802D952F0895EE27FF27AA27BB2756
:102ED00008C0A20FB31FE41FF51F220F331F441FAA
:102EE000551F969587957795679598F37040A9F744
:102EF000009799F7BD01CF010895991B79E004C0AF
:102F0000991F961708F0961B881F7A95C9F7809528
:102F10000895AA1BBB1B51E107C0AA1FBB1FA61720
:102F2000B70710F0A61BB70B881F991F5A95A9F772
:102F300080959095BC01CD01089597FB072E16F45E
:102F4000009406D077FD08D0E4DF07FC05D03EF4FE
:102F5000909581959F4F0895709561957F4F089545
:102F6000A1E21A2EAA1BBB1BFD010DC0AA1FBB1F8D
:102F7000EE1FFF1FA217B307E407F50720F0A21BFF
:102F8000B30BE40BF50B661F771F881F991F1A946C
:102F900069F760957095809590959B01AC01BD0196
:102FA000CF010895E199FECF1FBA8EBBE09A992711
:102FB0008DB30895262FE199FECF1FBA8EBBE09AFC
:102FC00081500DB2021639F01CBA2DBB0FB6F89421
:0C2FD000E29AE19A0FBE0895F894FFCF3A
:102FDC00080E1801010101000486014602010201DC
:102FEC0003038686860108080100014601000B00D8
:102FFC00000B00000040000000000000000000007A
:10300C000040000000000000000005000303030363
:10301C00010329436E0207270029190401989B76A6
:10302C00150504030F011201150102010000000037
:10303C0000000001000000000000000001000091F1
:10304C0001A502AF03B904C305CD06DC07FF074F8A
:10305C0003460400600351040070035C0400800309
:10306C00660401B303930401CC02F60200D202F60B
:10307C000200D802F60200DE02F60200E402F602BA
:0C308C0000EA02F60200F002F60200006A
:00000001FF
