:1000000030C100004BC1000049C1000047C10000E1
:1000100045C1000043C100000C9459123FC10000CB
:100020000C946A123BC1000039C1000037C10000C6
:1000300035C1000033C1000031C100002FC10000F4
:100040002DC100002BC1000029C1000027C1000004
:1000500025C1000023C1000021C100001FC1000014
:100060001DC100001BC100000C94161217C1000036
:1000700015C1000013C1000011C100000FC1000034
:100080000DC100000BC1000009C1000007C1000044
:10009000303136312E302E000001050414101115B8
:1000A0000000000000000000000000000000000050
:1000B000000000000000000000000000000003033A
:1000C0000303030303030303000000000000000018
:1000D0000000000000000000000000000000000020
:1000E0000000000000000000000000000000000010
:1000F0000000000000000000000000000000000000
:1001000000000000000000000000000000000000EF
:1001100000000000000000030303030303030303C4
:10012000030303030303030303030303030303039F
:1001300003030303030303000500060009000C008A
:10014000100015001C0023002C0037004400530051
:10015000650079009000AA00C800EA000F0139018B
:1001600068019C01D60116025B02A802FC0257033B
:10017000BA03B201E20116024E028A02CB02100358
:100180005A03AA03FF0314001500170019001B00EF
:100190001E0020002300250028002B002E00310027
:1001A000350038003C004000440049004D0052003A
:1001B00057005D00620068006E0074007B008100E3
:1001C000890090009800A000A800B100B900C30009
:1001D000CC00D600E100EB00F70002010E011A018D
:1001E00027013401420150015E016D017D018C0146
:1001F0009D01AE01BF01D101E401F7010A021F0216
:10020000330249025F0275028D02A502BD02D602C9
:10021000F0020B03260342035F037C039B03BA0334
:10022000D903FA03AE01BC01CB01D901E801F80101
:1002300008021802280239024B025C026E02810297
:100240009402A702BB02CF02E402F9020E032403C8
:100250003B035103690381039903B203CB03E50315
:10026000FF0311241FBECFEFCDBFDFE7DEBF10E7D6
:10027000A0E0B0E7ECE9FCE202C005900D92A633E5
:10028000B107D9F720E7A6E3B0E701C01D92AE3C65
:10029000B207E1F70E947A120C941D16B1CEF894C1
:1002A00098ED94BF809361008091650080FDFCCF44
:1002B00078940895E0E0F6E0848581608487828503
:1002C000816082870895EBE9F0E720E030E09081DB
:1002D000992339F02F5F3F4F339620313105B9F71D
:1002E0000BC0F901EE0FFF1F2E0F3F1FF901E5565E
:1002F000FF4880836183728308950F931F93CF9388
:10030000DF93D0919B70DD2351F100919C7010918F
:100310009D70C0917870C150C7FD0DC0EC2FEE0FDD
:10032000FF0BE758FF480190F081E02DB8018D2FB9
:1003300009958111F0CFEBE9F0E783818083848117
:10034000958181839283339680E7E83CF807A9F78B
:100350001092C8701092C9701092CA70D2CFDF91FB
:10036000CF911F910F910895BC018091CD70ABCFBB
:100370001092CD701092CB701092CC7081E080936F
:10038000677008950F931F93CF93C82F05E11CE06A
:10039000CC2349F083E083DFC8010197F1F780E0C7
:1003A0007EDFC150F5CFCF911F910F91089510922C
:1003B000B000E0E0F6E082E9808384E0818381E0C0
:1003C000828389E180878081816080831092977029
:1003D000109298706FCF82B18295817091E08927D9
:1003E000809371700895E0910670F09107703196D6
:1003F000FB70F460E0930670F093077080916A7070
:100400008B5A80936A70E49180916A708E0F089580
:10041000882349F0813069F480E88093020488E001
:1004200080931704089580E8809301048093060464
:10043000089580E880930104809305040895FF9255
:100440000F931F93CF93DF9300D01F92CDB7DEB7EA
:1004500020913EAC30913FAC409140AC29833A832F
:100460004B838E010F5F1F4F20E030E0682F70E05C
:10047000E1E0F0E098E0F92ED8019D918D01A9010D
:10048000440F551FDB0102C0B595A7954A95E2F7C9
:10049000AD01437081F04130C9F4A92FB0E0AF0144
:1004A00002C0440F551F9A95E2F740930204A05FE3
:1004B000BB4FFC9215C0AF0102C0440F551F9A9567
:1004C000E2F740930104409306040AC0DF0102C032
:1004D000AA0FBB1F9A95E2F7A0930104A09305040D
:1004E0002F5F3F4F2330310539F62396CDBFDEBF56
:1004F000DF91CF911F910F91FF900895811102C05C
:1005000081E001C082E09BCF811102C085E001C083
:100510008AE095CF811102C084E001C088E08FCFCE
:10052000811102C084E101C088E289CF811102C03B
:1005300080E101C080E283CF811102C081E101C06E
:1005400082E27DCF811102C085E101C08AE277CFCE
:1005500081E00895CF93C82F80916C70882319F0A3
:100560008C1708F4C82F8091707081110BC067DF61
:1005700091E0C11101C090E081E0C73408F480E04F
:10058000890F46DFC1111DC01092A2061092A3066A
:100590001092B200809164048F7D809364048091F6
:1005A000640480618093640483E0ECDE80916404E1
:1005B0008F7E80936404809104048F7B8093040475
:1005C0000EC0E0916F7084E0E89FF0011124E458C0
:1005D000F3450190F081E02D8FEF8C0F099580910C
:1005E0006E70C81380936D70C0936E70C0936B7003
:1005F000C83210F483E005C0C83211F481E001C0B4
:1006000080E0CF914CCE90E0FC01E056FF4FE491AA
:100610002091B200E2132BC02091A2063091A306D4
:1006200076E0369527957A95E1F7FC01EE0FFF1FEE
:10063000EA5CFE4F459154912417350718F42F5F5B
:100640003F4F05C04217530710F421503109C9012B
:1006500066E0880F991F6A95E1F78093A206909350
:10066000A30681E02417350719F080E0089581E0A2
:10067000089510929970809199708823E1F32091E8
:10068000937030919470C901A0E0B0E09C01AD017D
:1006900021503F4F4F4F5F4FABE2B0E00E94EA1551
:1006A00020E032E340E050E00E94B915822F089527
:1006B000CF93DF93CDB7DEB72697CDBFDEBF909146
:1006C0000C702091897030918A7025583B4009F454
:1006D00092E0843019F4609318701FC06623E9F02B
:1006E000823019F427E9261B622F26E0E1E4FCEAB8
:1006F000DE01119601900D922A95E1F79E012F5F80
:100700003F4F280F311D280F311DF90132970190FD
:10071000F081E02DE90FF11D60832696CDBFDEBF8D
:10072000DF91CF910895BF92CF92DF92EF92FF9227
:100730000F931F93CF93DF93EC0140910C70909136
:100740001770992311F0E2E001C0E42FF0E0E45FBC
:10075000FF48228120930970858180930870E92FDA
:10076000F0E0E45FFF483185622F70E0442349F0F8
:10077000313039F49B01280F311DC90195958795BA
:1007800038C0C617D707A4F1682F70E06C177D0733
:1007900084F1411102C08C2F2CC0821B032F10E06A
:1007A00001501109E82EF12CC701B8010E94A615CD
:1007B000609364706695E62FF0E0822FC12CD12CF7
:1007C000B12CB316B1F0C601B8010E949215822F68
:1007D000860FCE0CDF1CAE01481B510957FF03C02A
:1007E000519541955109E417F5071CF4B394E9CFED
:1007F000822FDF91CF911F910F91FF90EF90DF90AB
:10080000CF90BF900895ECE0F0E7868580930A7062
:100810008389808B80936F700895809160708823A6
:1008200051F090916E709093637080935F7010920E
:100830005D7010925E7008950F931F93CF93909107
:100840008D70992351F026E9290F273210F0933249
:1008500020F480E0F4DD80E09CC0E82FEF70209170
:100860006170211123C0C82FC295CF7020913170C3
:1008700088E0289F9001112462177307C0F48091CB
:100880006670482F50E0421753078CF4882379F0A4
:1008900021E080916D708F3008F420E081E0C2305B
:1008A00009F080E0822BC1E0C80F36C0C2E0E7301B
:1008B00088F1E730A9F400913B7010E00F5F1F4F03
:1008C00092DD65E00E9486159801290F311DC9014E
:1008D00066E070E00E94A61580933B70FC013AC070
:1008E000E830D1F480917070882311F02FE001C0BE
:1008F00023E030E062237323672B51F480913B7037
:1009000090E0019666E070E00E94A61580933B702F
:10091000E0913B70F0E01EC080917070882381F000
:1009200080E0E82FF0E0E65AF3452081921710F0BE
:100930008E5FF7CF3197E081F0E0E856FF4F0CC0B3
:10094000CB019695879563E070E00E949215FC01BB
:10095000EE0FFF1FE756FF4FE491C33071F4809113
:100960003A7090E0019663E170E00E9492158093E6
:100970003A70DC01A95BB345CC91CC2329F0C1309E
:1009800029F0EE0FC2E002C0C0E0E0E08E2F57DD9C
:100990008C2FCF911F910F913BCDCF93C0916E7053
:1009A00089E18C0F873908F080E0D4DD82E0EADC51
:1009B0008C2FCF91CFCDCF93C0916E7080E0CADDE8
:1009C00083E0E0DC8C2FCF91C5CD81E008958230AB
:1009D00019F4609331700895611160932C7008953B
:1009E000662389F0813061F480918B7090912E7034
:1009F000891B681B60932E7082E080930B7003C08C
:100A0000635E60932D7080912D70873418F086E4BA
:100A100080932D700895609332700895E82FF0E070
:100A2000E45FFF4866A308957FEF780F40911D7043
:100A300050911E70662359F021E030E002C0220F71
:100A4000331F7A95E2F7CA01822B932B0AC081E00B
:100A500090E002C0880F991F7A95E2F78095842371
:100A6000952380931D7090931E70089580936570F8
:100A700090916E70981718F4282F291B02C0292F07
:100A8000281B30915770311106C0309121703323EB
:100A900069F0223058F08093587084E0809356704B
:100AA00081E08093577090935970089553CDCF9300
:100AB000DF938CE090E7809368709093697082E098
:100AC00061DCF894C0E0D0E0E0916870F09169706A
:100AD000EC0FFD1F60812196CE010E94FC15CA32E9
:100AE000D10591F765EA80E090E00E94FC157894CA
:100AF000DF91CF910895CF93DF9390916F70981706
:100B000059F0C82FD0916E7080E024DDC0936F70D3
:100B10008D2FDF91CF911ECDDF91CF9108959091D0
:100B20006E70911109C0893238F49091640490611B
:100B30009093640491E001C090E02091040420644B
:100B400020930404282F30E0F901EE0FFF1FEA5C28
:100B5000FE4F4591549166E0440F551F6A95E1F7A9
:100B6000F901E056FF4FE491883220F0809164044F
:100B7000806203C0809164048F7D809364044093FD
:100B8000A2065093A306E093B200992339F083E0C4
:100B9000F9DB809164048F7E809364040895109241
:100BA00099708091100690916A70890F80936A7095
:100BB00080918E70882309F469C110928E70909193
:100BC000977080917070882349F0809100068E7F25
:100BD0008093000610929A701092977091117BC0CA
:100BE00080910B70882329F020919370309194703C
:100BF0001AC02091707080918F7090919070222314
:100C0000B9F0209193703091947053E03695279508
:100C10005A95E1F7280F391F63E0969587956A95F5
:100C2000E1F7281B390B20938F703093907001C02F
:100C30009C01C901A0E0B0E09C01AD0121503F4FF3
:100C40004F4F5F4FABE2B0E00E94EA1520E032E385
:100C500040E050E00E94B91580912C708750880FB9
:100C6000280F20938D7080915470882311F081504B
:100C70000BC086E9820F873210F0233238F460E02F
:100C800070E084E020DB85E0809354708091707088
:100C90008111F3C081E08093B00092E49093080644
:100CA00090E49093030690E29093050692E190936E
:100CB00000061092010694E09093010680930206CC
:100CC0009091000691609093000680939770109227
:100CD0009870F0DAD2C0913009F0CFC080910B70DB
:100CE000882341F0809195709091967080939170D7
:100CF00090939270A0910411B0910511209106116A
:100D00003091071184E0220F331F8A95E1F780911B
:100D1000917090919270281B390B0E94DB15DC01B9
:100D2000CB01905EAF4FBF4F2AE0B695A795979540
:100D300087952A95D1F720912E70FC0136E0F69523
:100D4000E7953A95E1F7022E000C330BA9014351C8
:100D500051404E0F5F1F40938B7050938C70BC01BD
:100D600045E0769567954A95E1F780910B70811182
:100D70002AC080914370E82FF0E0EE0FFF1FEC5B7C
:100D8000FF4840815181DB01A41BB50BAD0160839D
:100D900071838F5F87708093437080912D7090E096
:100DA0008D5E9E4F821B930B880F991F9B01281B02
:100DB000390BC9019D01220F331F220F331F820FF0
:100DC000931F23E00EC0E4E4F0E76193719380E7A2
:100DD000E435F807D1F7CDCF009709F001962150FF
:100DE00029F018161906C4F70197F9CF1816190635
:100DF000E4F457FD39C02091427012160CF1880FAF
:100E0000991FBC016350710977FF02C06F5F7F4F6C
:100E1000759567951616170614F061E070E088E185
:100E2000861B8093427085E026C08C3FAFEF9A0707
:100E3000DCF457FF19C02091427027FF05C02450F1
:100E4000281B2093427018C024EE281B2093427068
:100E500020918D70233980F06CEF7FEF681B790B48
:100E60007595679586E007C080918D70823920F076
:100E700060E070E087E027DA9ADA80910B708823CF
:100E800029F080910B70815080930B700895813010
:100E900019F410921A700895823019F460931B703F
:100EA0000895833019F4609319700895843019F40B
:100EB00060930D700895853011F46093217008954A
:100EC000CF93C0911770C1114FC0883039F4109280
:100ED000607010925D7010925E7047C0813B81F42B
:100EE000809160708150833008F03EC083E0809331
:100EF000607080935F7010925D7010925E7034C06D
:100F0000853BB1F4CB016EE370E00E949215892B12
:100F100061F5809160708A3F40F58B5F80936070CF
:100F200080935F7010925D7010925E7036DD1DC010
:100F30008130D1F480915D7090915E700196883817
:100F40002EE0920728F480935D7090935E700DC040
:100F500010925D7010925E7080916070882329F00D
:100F600081508093607001C0C1E08C2FCF910895B3
:100F7000FF920F931F93CF93DF938C01EB01F42E1D
:100F80008091897090918A70892B31F0E0918970FD
:100F9000F0918A7089E009950093897010938A70A6
:100FA000012B39F0E0918970F0918A70BE018F2D8C
:100FB000099581E080936770DF91CF911F910F9128
:100FC000FF900895CF93DF93E0917870EE2359F06E
:100FD000E150E0937870F0E0EE0FFF1FE758FF4814
:100FE000C081D18102C0C0E0D0E0E0917870EE23F2
:100FF00041F0F0E0EE0FFF1FE958FF48808191813A
:1010000002C080E090E04AE060E070E0B1DFCE0135
:10101000DF91CF910895883029F410925570109285
:101020003C7015C0813001F590913C70911107C062
:101030006032710570F180933C709AD92AC091306A
:1010400089F46B3B710528F082E080933C7080E06E
:101050001FC061157105E9F06270862F880F880F37
:101060008E5E16C0AFDF15C0813811F0813E89F465
:1010700091E090933C70813E21F480915570865FA1
:1010800003C0809155708F5F8093557071D98BE448
:1010900061DA80E008959C0190917870983088F42E
:1010A000E92FF0E0EE0FFF1FE758FF482083318360
:1010B0009F5F9093787048E0C9015ADF8091787003
:1010C00008958FEF08950F931F93CF93DF93EC0153
:1010D0008B0178DFB801CE01DF91CF911F910F9185
:1010E000DACF813C29F460E070E08DE19CE006C03D
:1010F000823C39F460E070E087EA9BE0E4DF80E066
:10110000089581E00895843011F58091897090915F
:101110008A702FE08539920729F469E170E08CEE3E
:1011200098E013C08C5E984061F490916E7092309C
:1011300040F0892F869596959695890F97DC80E0EB
:10114000089560E070E08DE19CE0BDDFF8CF81E0C4
:101150000895813C29F460E070E08DE19CE006C0D8
:10116000823C31F460E070E081E798E0ACDF16C0CB
:10117000813B49F4CB016EE370E00E949215892B0C
:1011800069F40BDC0BC0813E59F4CB016EE370E0D7
:101190000E9492156F5F60932B7089DC80E0089548
:1011A00081E00895813C29F460E070E08DE19CE0ED
:1011B00006C0823C31F460E070E089EA98E083DFA9
:1011C00007C0873B39F460E070E081E99BE063DFB2
:1011D00080E0089581E00895BF92CF92DF92EF9270
:1011E000FF920F931F93CF93DF93182FEB01809102
:1011F0001C7080936F70D0900970F090087080918F
:101200000C70882319F0B090647002C0BB24B394B2
:10121000C0900D70809117708111C0901870CC2013
:1012200051F031E0C31621F080910A708F1518F04B
:10123000F6E9EF2E01C0EF2C00916070BE01812F06
:101240003FDE20916070222339F001110CC08091A3
:101250006E708093637007C0002329F060E070E037
:101260008DE19CE036C0812F8D7F8830D9F41092BB
:101270005C701A3019F4C0910A70D0E08D2D90E0A6
:101280008C179D0738F48F2D90E0C817D90710F4FC
:10129000C0930A70CE0147DAE9DB81E080930570E4
:1012A00000E0BBC1113CD1F2123C59F480916E7048
:1012B0008E1510F48E2D02C080910A70D7DBADDA46
:1012C000EFCF143C41F480E045D960E070E084E762
:1012D0009DE0F9DEE5CF8FE4810F823008F061C038
:1012E00080910C70882341F0CE0168E170E00E948B
:1012F0009215892B31F0D4CF6091147070E0CE013B
:10130000F6CF009157700111CBCF80916E7020976E
:1013100061F4123B11F48FEF05C08F15E0F7D8167A
:1013200048F181E08093057025C02091147030E071
:1013300066E371E0269FA001279F500D369F500D58
:1013400011244C175D0710F48F1528F76CE672E036
:10135000269FA001279F500D369F500D11244C173A
:101360005D0740F4D81630F018DB60E070E084E7E9
:101370009DE0A9DEC0916E70209105703B2D230386
:10138000C00111248C0F911DCED980930A70C8170B
:1013900019F0F81201C00FDB80910A7067DB3DDAAB
:1013A0003CC18FE1810F823020F4809105708195DE
:1013B00075CF113009F084C0A99711F4109305700E
:1013C000222371F1C0916370C29F90011124E091BA
:1013D0005F70F0E0C901BF010E94A615462FC90148
:1013E0008C1B9109BF010E94A615242F261B8091FA
:1013F0005D7090915E706EE370E00E949215269F82
:10140000C001279F900D11246CE370E00E9492159B
:10141000461B642F09F461E060936B706093657004
:10142000C0916B7020916E708C2F90E0821B91099F
:1014300060913F70709140706F5F7F4F60933F701D
:1014400070934070009709F42BCF97FF05C02338A5
:1014500030F040E150E005C040E850E002C040E418
:1014600050E05695479597FD01969595879500977D
:10147000C1F74617570708F013CFC21710F4CFEF84
:1014800003C02C1710F4C1E0C20FE0916F7084E02C
:10149000E89FF0011124E458F3450280F381E02D28
:1014A0008FEF8C0F0995882331F0D0916B708C2FC2
:1014B00051D8D0936B7010923F7010924070F0CE64
:1014C0001530A1F480916E70893208F4E9CE90E075
:1014D0008C1B9D0B8832910534F0873991056CF196
:1014E00086E990E02AC088E290E027C01630B9F47F
:1014F00090916E7080916570981708F0D1CEC90FE9
:10150000D11D90E08C179D0734F0C832D10524F42A
:10151000C8E2D0E001C0EC01C0936B70C1CE1730BF
:1015200079F490916B7080916E70891710F48F5FD1
:1015300004C0981708F0B4CE815080936B70B0CE81
:10154000133C19F0163C41F517C060911D70709165
:101550001E7080E090E020E0AB01082E02C056959E
:1015600047950A94E2F74170240F0196883091055F
:1015700099F7223008F050C081E090910C709111E1
:1015800080E080930C7093DA16DA80916E7090E0B0
:10159000CAD880930A7092CE0091177001113CC096
:1015A000133B49F4CD2B09F07BCECC2011F086E91A
:1015B000E82E8E2D04C0133E21F480910A7056DA75
:1015C0002CC0153C69F480916E7080930A7080E0A5
:1015D0000E94AA0260E070E080E491E174DD1DC029
:1015E000173B29F460E070E081E89BE013C01A3CEF
:1015F00059F480916E7080931A7080916F7080930F
:101600001F7055DACAD909C01A3B31F460E070E0A6
:1016100089E89BE040DD01C001E0802FDF91CF91A0
:101620001F910F91FF90EF90DF90CF90BF900895A2
:101630000F931F93CF938B01C42F883099F480911F
:101640006F7080933E7010923D7080E00E94AA02FD
:1016500080917170811150C080913D708F5F809337
:101660003D7034C0982F907F903B29F580913D705C
:101670004817E8F08150883040F4909162709923C7
:1016800021F090916F70891336DAC8016DE570E032
:101690000E949215069749F480913D708F5F809368
:1016A0003D70C81748F188E303C082E101C080E0C3
:1016B0000E94AA0221C0903E79F480913D70882357
:1016C000A1F0481790F080913E7015DA60E070E06C
:1016D0008BE098E0E0DC10C08A3049F460915570EE
:1016E00080913D70F9010995E2D96CDC05C0893023
:1016F00019F480913E70FFD980E0CF911F910F9136
:10170000089528E533E043E093CF28E533E044E053
:101710008FCF27E437E045E08BCF27EE34E042E07F
:1017200087CF20EF34E042E083CF2BE035E041E08B
:101730007FCF2EE035E043E07BCF91E09093627065
:1017400024E135E048E074DF109262700895CF9391
:10175000C0911770C11123C0813C29F460E070E092
:101760008DE19CE006C0823C31F460E070E082EDE7
:1017700098E0A9DC15C0833C51F48091207090E082
:101780000196877099278093207091D909C0873B73
:1017900031F460E070E08DE89BE07DDC01C0C1E0E9
:1017A0008C2FCF910895CF93833C21F540916F709A
:1017B00060911D7070911E70842F98E0282F30E08A
:1017C0002F5F3F4F27703327822FFB0102C0F69512
:1017D000E7952A95E2F7E0FF0AC04817B9F08BD9E0
:1017E00080916F7080931C7062D9C0E010C09150DE
:1017F00029F7F3CFC0911770C11108C0893B31F4AC
:1018000060E070E08DE99BE046DC01C0C1E08C2F18
:10181000CF91089590912170992369F08093587029
:1018200088E08093567081E08093577080916E704D
:101830008093597008950C94AA020F931F93CF932D
:101840008B018830A1F480E0E5DF80915770082B90
:101850001092667080911C7080936F70109260700F
:10186000012B09F043C081E0809370703FC081304C
:1018700051F469317105D0F1C0915770C11136C072
:10188000809370702CC1833099F5809166708F3F82
:1018900019F08F5F8093667080911A70882371F0C1
:1018A00040911B7022EC31E0429FC001439F900D9C
:1018B00011240817190710F00E940304B801809141
:1018C0002F700E941C0480913270882379F042ECC2
:1018D00051E0849F9001859F300D1124201731071E
:1018E00028F460E070E084E79DE0EDDBC0E0F7C045
:1018F000813B99F481E090E00E9493038BDF80911B
:1019000019708111F3CF80910C70811103C00831DF
:10191000110560F361E070E028C0813ED9F38138A1
:1019200021F480910A7090E015C0813C21F460910F
:101930000A7070E01AC0823B91F410926670809138
:101940000D7090911770911180911870811105C0E0
:1019500086E990E00E94930310C086E90EC0823EA3
:1019600059F0823C29F466E970E08CEE98E0BDCF36
:10197000833929F41092577080E04CDFB7CF833C55
:1019800029F460E070E087EA9BE0AFCF843C11F47B
:1019900004D8A7CF8D3B31F491E088ED84BF9093BC
:1019A0004100A4CFC09117708F3CE1F4CC23A9F083
:1019B00010922F701092327083E380931A7080938C
:1019C00010708093137081E08093167010923170C4
:1019D00080932170109218700FC060E070E085EE67
:1019E00094E077C08A3B81F4672B71F4CC2331F00B
:1019F0000E94CD04109217705AD878CF60E070E042
:101A000085E89BE048DB6BC0CC2379F0863C09F08D
:101A100065C080911670843008F460C00E94CD04C7
:101A200060E070E08BE891E160CF873CB9F4809191
:101A30002F70982F92959F709F5F937040E1949FB5
:101A4000900111248F70822B80932F7060E070E0E2
:101A50000E941C042CD80E94CD0441C0873BD9F4BD
:101A600081E080936170C8018F739927892B69F495
:101A700090912F70892F8F708F5F292F207F6BE0BF
:101A80000E948615922B90932F70B80180912F7031
:101A90000E941C0424C0873E19F4109261700EC08D
:101AA000833B29F460E070E085E99FE012C08A3C46
:101AB00041F40E94CD0481E0809317700E94570585
:101AC0000EC0853C41F40E94CD0460E070E080E4EB
:101AD00091E1F9DA04C0863C09F4A0CFC1E08C2F73
:101AE000CF911F910F9108950F931F93CF93DF9381
:101AF000C82F8B01873B21F480E00E94AA0282C09C
:101B000080798039B1F420910E7090910F708C2FF4
:101B10008F70813021F4822F921748F407C0809192
:101B20001A70811104C0822F291708F4892F72DEE0
:101B30000FC0803811F480E06DDEC83049F4109297
:101B4000667060E070E0809130700E941C045AC0A2
:101B5000C13039F40931110508F49DC0C09370708B
:101B60001BC0C330F9F4809166708F3F19F08F5F0E
:101B70008093667080911A70882371F040911B7079
:101B800022EC31E0429FC001439F900D11240817C1
:101B9000190710F00E940304B801809130700E9470
:101BA0001C0479C0C33C39F40E94CD0460E070E0AD
:101BB0008DE19CE015C0C43C21F460910A7070E096
:101BC0000DC0C43B39F40E94DB041092CD7061E07B
:101BD00070E004C0C53C31F466E970E08CEE98E03A
:101BE00072DA59C0C33B71F4C8016EE370E09AD752
:101BF000892B41F460E070E083ECDF91CF911F917D
:101C00000F91D1CDD0911770D11147C0C73CC1F40D
:101C100080913070982F92959F709F5F937040E1F4
:101C2000949F900111248F70822B8093307060E01C
:101C300070E00E941C040E9457050E94CD042EC033
:101C4000C73BD1F481E080936170C8018F739927FD
:101C5000892B61F490913070892F8F708F5F292FBD
:101C6000207F6BE053D7922B90933070B801809116
:101C700030700E941C0412C0C73E29F4109261709B
:101C80000E9457050BC0CA3B41F460E070E085E953
:101C90009BE001DA03C0D0E001C0D1E08D2FDF91DD
:101CA000CF911F910F9108950F931F93CF9310928F
:101CB00073708091CB709091CC709C012F5F3F4FDF
:101CC00088279078822B932B8093CB709093CC7045
:101CD000C09171700E94EB01C81731F110927070C1
:101CE000809371709091CD70882359F0892F80690D
:101CF0009F709F3009F08F5F8093CD7080E090E0FF
:101D00000DC0892F8F7E95FD02C0806801C0806C58
:101D10008093CD708091CB709091CC700E94B40173
:101D20001092CB701092CC700091CB701091CC704F
:101D3000809170708823B1F0B80183E00E94630144
:101D40000E947D010134110528F00F701127012B2D
:101D500009F047C01092417081E080939A700E9410
:101D6000D70132C0C091CD708C2F807F803B19F499
:101D700060E070E001C0B80181E00E946301C4FF2F
:101D800013C0C5FF02C0C8010CC008311105E0F046
:101D90001092CB701092CC70C062C093CD7080E076
:101DA00090E00E94B40110C0CC2371F0C5FD0AC0C0
:101DB0000231110548F0C064C093CD7080E090E01E
:101DC0000E94B4010E94B801C0914170C11105C0C8
:101DD0000E945A0181E080938E70CF5FCF71C093D3
:101DE0004170CF911F910F91089580919970811149
:101DF0000E94CF0580917370811156CF0895EF92A4
:101E0000FF920F931F93CF93DF93EC0108E51BE044
:101E100086EDE82E82E0F82E2097D9F08091677049
:101E2000811119C080916E70883228F483E00E947D
:101E30004F01C70104C080E00E944F01C801019713
:101E4000F1F780E00E944F01D0DF0E947D012197D1
:101E5000E3CF81E001C080E0DF91CF911F910F912E
:101E6000FF90EF9008950F931F93CF93DF93C82FA8
:101E7000882311F006EA02C00AE0C1E0D0916F7039
:101E800010E0809120700E947B0589E10E94AA02E7
:101E9000D0936F70C801B3DF809120700E947B05E2
:101EA00080E00E94AA02D0936F708AEF90E0A7DFD3
:101EB000C15039F78D2F0E947B058AE992E0DF91AE
:101EC000CF911F910F919BCFCF93DF9364E61ED6E6
:101ED000282F892F6AE01AD6EC01222341F0822FA5
:101EE000C2DF8C2FC0DF8D2FDF91CF91BCCFC1110E
:101EF000F8CFF9CFCF93DF93D82FC3E080910A704A
:101F00000E94AA0288EC90E07ADFDD2319F080E9D4
:101F100091E075DF80E00E94AA0288EC90E06FDF1C
:101F2000C15061F7DF91CF910895FF920F931F93F6
:101F3000CF93DF93D82F8B01C0915A7081E08093AB
:101F40005C70C33009F0ECC0F09060708D2F0E947F
:101F50006007FF2051F080916070811106C060E041
:101F600070E08DE19CE0AFD8DBC0D83021F481E097
:101F700080930370D7C0D23C19F410926070E5C012
:101F8000D13BC1F490910270012B49F4903210F0D2
:101F90008FEF03C0923018F481E08093037080913A
:101FA0000370890F11F481E04DC1813208F44AC1F8
:101FB00080E248C1D13E31F48091037081958093D5
:101FC000037014C1D23B61F481E08093037080916F
:101FD0000270823008F412C18150809302700EC1E9
:101FE000D13009F0B6C00932110511F4D093037055
:101FF00090913970892F880F97FD809529E0829FF5
:10200000C001112430913870232F220F37FD209505
:1020100080910170289F90011124232F290F909106
:102020003770892F880F97FD809590910070899F58
:10203000C0011124822F890F6091027070E0680F37
:10204000711D809160708130B9F480915D709091C4
:102050005E7025E0969587952A95E1F724E730E0B4
:10206000A901481B590B469FC001479F900D569FE1
:10207000900D1124B90156D5862F0E94AA0200FDA9
:1020800008C00E94F301817090913970890F80938C
:1020900039709091387080913670890F80933870C4
:1020A0000E94F30165E232D580913770980F9093CA
:1020B00037700E94F3018F7331F40E94F3016DE0D9
:1020C00025D590933670C0910170CC2339F00E94D1
:1020D000F3018F7319F4C150C09301700E94F30192
:1020E000811108C00E94F3016EE010D59093017039
:1020F00010923870C0910070C33038F00E94F30124
:102100008F7119F4C150C09300700E94F3018F7752
:1021100009F0A4C00E94F3018770809300709EC0F4
:10212000D83041F48091227080935A7081E080937E
:1021300004708AC0D13C39F460E070E08DE19CE02D
:102140000E94630881C0D23C31F48C2F90E001964C
:1021500017C0D13C89F3D33C71F480916F708F5FCD
:1021600087700E947B05EC2FF0E0E45FFF488091D0
:102170006F70878B56C0D43C59F48C2F90E0049636
:1021800065E070E0E3D48093227080935A7049C078
:10219000D13B51F5C23090F400FD56C0EC2FF0E079
:1021A000E45FFF48848D90910470891B883020F093
:1021B0008F3F99F58EEF31C088E02FC0C43009F011
:1021C00043C090912A7080910470890F823010F47E
:1021D00082E003C08F3608F08EE680932A708091EB
:1021E0002A700E94AA0230C0D13E31F4809104705E
:1021F00081958093047015C0D23B89F481E080936F
:102200000470C23018F500FD1FC0EC2FF0E0E45F51
:10221000FF48848D8F3FC1F08F5F848F15C0D23E01
:1022200019F40E94570510C0D53C41F460E070E0FD
:1022300080E491E10E94630880E0D3CFD13071F057
:1022400081E018C08093027080E014C0C430E1F7D0
:1022500080912A70833018F28150BFCF0932110566
:1022600019F481E08093047080916A70080F0093E4
:102270006A70EACFDF91CF911F910F91FF9008957F
:102280000F931F93CF93DF93D82F8B01883031F4B6
:1022900080915C70882311F088E047DE8D2F807973
:1022A000803961F481E080935B70C0915C70C111F2
:1022B0000CC080910A700E94AA0227C0803839F4AD
:1022C00010925B7080E00E94AA02C0E01EC0D13074
:1022D000D9F4C0915B70CC2359F080915C70882355
:1022E000A1F3B80181E0DF91CF911F910F911DCE35
:1022F00080E00E941F0280E00E9408020733114024
:1023000020F3D093707001C0C1E08C2FDF91CF918A
:102310001F910F910895EF92FF921F93CF93DF9338
:10232000C82F7B01D0910A708079803951F5EC2F4C
:10233000EF70E43020F010925B7010E036C091E056
:1023400090935B70F0E0E45FFF4886A12FEF280FC9
:10235000263948F480930A7010925C7080911C704A
:1023600080936F700CC090935C708739D0F090E0D0
:102370008759910965E070E0E9D380935A7010E0C5
:102380000BC0803841F410925B7080E00E94AA027A
:1023900081E08093677011E080915B70882329F061
:1023A00001C010E0B7018C2F6BDFD0930A70C830EA
:1023B00021F4B70188E098DB20C0C13039F4809166
:1023C0005B70811127C0B70181E004C0C33041F4C4
:1023D000B70183E0DF91CF911F91FF90EF9084CB05
:1023E000C33CC1F0C63C49F40E94CD0460E070E0FB
:1023F0008DE19CE00E9463080DC0D0911770D1114F
:102400000BC0C73B59F460E070E089E99BE00E9493
:102410004B0805C0D0E003C0D1E001C0D12F8D2F03
:10242000DF91CF911F91FF90EF9008951F920F922F
:102430000FB60F9211242F933F938F939F93AF93D7
:10244000BF93EF93FF9381E080930D068091987086
:102450008823F9F0E09197702091100630911106D1
:10246000F0E0EE0FFF1FDF01AD56BF482D933C9308
:10247000E157FF48808191818217930708F4019604
:102480002817390708F401978083918381E08093AE
:10249000997081E080939870FF91EF91BF91AF9117
:1024A0009F918F913F912F910F900FBE0F901F9092
:1024B00018951F920F920FB60F9211248F9381E0FF
:1024C00080935301809373708F910F900FBE0F9084
:1024D0001F9018951F920F920FB60F9211248F9391
:1024E0001C9A81E0809372708F910F900FBE0F90B5
:1024F0001F901895F8941092400088EDA89584BF1D
:1025000090910001907F9093000129E130E084BF19
:10251000209368008DEC80B980E78CB988E08093C7
:10252000110499E090931404809351048093520411
:102530008093530494E090937604809377041092F0
:10254000B20081E48093A0061092A2061092A30626
:102550008091140481608093140481E0809352017F
:10256000809151018111FCCF81E4809350010E9440
:10257000D701789481E00E94C20160E070E083E8B6
:1025800098E00E944B081092677010926C7080E087
:102590000E94AA0280E22CEF33E0F9013197F1F7B3
:1025A0008150D9F70E943903082F10E00A3611052F
:1025B00018F493E28CE002C091E988E1C1E0E92ED1
:1025C000F12CC82ED12C8C2F0E94AA020E94390314
:1025D00090E09801281B390BE816F90618F0C09313
:1025E0006C7006C0C216D306D4F3CF5FCB3459F754
:1025F00080E00E94AA0280916C70811105C00E9447
:10260000EB01882381F10BC08BE40E94C2010E9480
:10261000CD048BE40E94C2010E94CD04F0CFC0E043
:102620008C2F0E94AA0283E190E0E9DB8C2F869533
:102630000E94AA0283E190E0E2DB0E94EB01882382
:1026400041F1CF5FC03461F765E181E00E94F004A1
:102650000E945705C6E98C2F0E94AA0284E090E0F0
:10266000CEDBC150C1F78CE090E780936870909307
:10267000697082E00E94C201F89480E090E0B4D2D8
:10268000853AD1F40091687010916970C1E0D0E092
:102690000AC0CC2341F38C2F0E94AA028DE090E067
:1026A000AEDBC150F6CFCE019FD2F80181938F01EE
:1026B0002196CB32D105B9F7789480911A708111A7
:1026C0000E94030460E070E083ED9BE00E944B08F1
:1026D00061E070E08DE19CE00E944B08442443944B
:1026E0002224239447E0342ECC24C394D12C65E0DB
:1026F000562E78EE672E73E0772EEDE1AE2EECE0ED
:10270000BE2EF7E98F2EF0E09F2E0E947D01809172
:10271000767090917770009751F06091747070911D
:1027200075700E9463081092767010927770809195
:102730007070882309F466C080E00E94AA0240926B
:102740005201809151018111FCCFF9E5F0935001C4
:10275000809100068E7F809300060E94EB0181111C
:10276000FCCF0E94B801809114048160809314040E
:1027700010929970109273701092727080917070B4
:10278000882369F180919A70882329F08091500004
:10279000897F826004C080915000897F846080932B
:1027A0005000809150008160809350008895809106
:1027B00050008E7F80935000809172708111109232
:1027C000707080919970882321F020928E700E9401
:1027D000CF0580917370882389F266DACFCF22E02B
:1027E00020930B7080911404887F809314040E94BE
:1027F000D70140925201809151018111FCCF31E407
:1028000030935001F2DA1092677080918970909144
:102810008A70E4E0853E9E0711F5C0E9D0E0FE0134
:1028200084918053803110F41EDB11C010E0812FA1
:1028300081708295880F807E0E94AA0280E190E0DC
:10284000DEDA1F5F193199F78AE992E0D8DA8CE273
:1028500091E0D5DA21968C169D0609F7D0C0FFE0ED
:1028600085399F0799F021E18034920729F031E101
:102870008B38930709F0ACC020915C70213009F0CF
:10288000A7C020915B70222309F4A2C0C0915A70A6
:10289000EC2FF0E0E45FFF48878980936F70C230CF
:1028A000C1F020F0C43009F476C02FCFD48D86E972
:1028B0000E94AA02C11103C081E090E003C08D2FE5
:1028C000869590E09CDA81E00E94AA028D2F90E02C
:1028D0000AC10E94F3018F73E82EF12C0E94F301CC
:1028E000632D14D1E60102C0CC0FDD1F9A95E2F7EB
:1028F0000E94F301652D0AD1F60102C0EE0FFF1F01
:102900009A95E2F7CE0FDF1F0E94F30190E0BE011F
:102910001DD1C80FD91FC739D10514F0C6E9D0E0C1
:102920008C2F0E94AA02C7016ADA8E0133E0159546
:1029300007953A95E1F7011101C001E010E0C701E8
:102940005EDAC01BD10BD7FF02C0C0E0D0E08C2FF5
:102950000E94AA020E94F301837039F4C7014FDA82
:10296000CE01959587950E94AA02C230D1053CF709
:102970000E94F3016DE0CAD0E60102C0CC0FDD1F5A
:102980009A95E2F70E94F30190E0BE01CBD0C80F08
:10299000D91F80E0A5C0C0912A70CC0FC73908F0BC
:1029A000C6E9D4E08C2F0E94AA0285E090E027DAE5
:1029B00080912A700E94AA0281E490E020DAD1502E
:1029C00089F780ED92E01BDA80E00E94AA029DCE9A
:1029D000FBE0873A9F07E1F488EE93E010DA8091FC
:1029E0008D70652D93D070DA80918D70652D8ED0AD
:1029F000892F880F69DA80911770882381F0A0925F
:102A00007670B092777010927470109275707DCE5F
:102A100028E0823D920731F480918B7055DA88EE80
:102A200093E061C038E0893A9307C1F480917170F6
:102A300081116BCE80910A700E94AA0284E690E018
:102A4000DED980E00E94AA0220912B70269DC00151
:102A5000279D900D11248456910945C081579840B7
:102A600049F480E047DA81E045DA80E043DA80ED3E
:102A700097E039C0809121708823B9F18091577017
:102A8000882399F120916E709091587029130AC093
:102A9000822F0E94AA0210925770809159708093E1
:102AA0006D7033CE60915670291760F4892F821BA8
:102AB0002DD0811101C081E0820F0E94AA028AE01C
:102AC00090E011C0FEE16F9FA00111246091597048
:102AD000691B70E0CA013AD0EB0121968FEF820F9B
:102AE0000E94AA02CE018BD910CE80915000897F1E
:102AF00080935000809150008160809350008895B1
:102B0000809150008E7F80935000FFCD991B79E01B
:102B100004C0991F961708F0961B881F7A95C9F76D
:102B200080950895AA1BBB1B51E107C0AA1FBB1FBC
:102B3000A617B70710F0A61BB70B881F991F5A9549
:102B4000A9F780959095BC01CD01089597FB072EBC
:102B500016F4009406D077FD08D0E4DF07FC05D01A
:102B60003EF4909581959F4F0895709561957F4FA4
:102B70000895A1E21A2EAA1BBB1BFD010DC0AA1FBE
:102B8000BB1FEE1FFF1FA217B307E407F50720F0D6
:102B9000A21BB30BE40BF50B661F771F881F991F51
:102BA0001A9469F760957095809590959B01AC019A
:102BB000BD01CF010895A29FB001B39FC001A39FA3
:102BC000700D811D1124911DB29F700D811D112466
:102BD000911D0895F0DFA59F900DB49F900DA49FC7
:102BE000800D911D1124089503D0808199270895A7
:102BF000FC01E050FC4E0895262FFADF00800216FB
:102C000011F004D0019701970895262FAF93BF9339
:102C1000E0E0F0E1328131FDFDCF3DE934BF33E149
:102C20003083DC01A050BC4E2C933DE934BF20E042
:0E2C300020830196BF91AF910895F894FFCFD5
:102C3E000302000E701170147002010000000000FB
:102C4E0000000100000000000000000100002D0146
:102C5E00320237033C0441054606500764009101D9
:102C6E00A502AF03B904C305CD06DC07FF078F0528
:102C7E0003037E02A8028402A8028A02A80290021E
:0E2C8E00A8029602A8029C02A802A202A802B6
:102C9C00080E18010101000486014602010201031D
:102CAC000386868601080801000146010001000028
:102CBC00070003000000000029436E0207270029CB
:062CCC00190401989B763B
:00000001FF
