:1000000003C200001EC200001CC200001AC2000091
:100010000C94920F16C2000014C200000C94810FC1
:1000200010C200000EC200000CC200000AC2000094
:1000300008C2000006C2000004C2000002C20000A4
:1000400000C20000FEC10000FCC10000FAC10000B7
:100050000C94370FF6C10000F4C10000F2C100009B
:10006000F0C10000EEC10000ECC10000EAC10000D8
:10007000E8C10000E6C10000E4C1000030363331C1
:100080002E302E0040004000400040004000400064
:100090004000400040004000400040004000400060
:1000A0004000000CA8074409C40531082406800755
:1000B0002206F106F4056E06AE0506055905D204C2
:1000C0005B04F303960345037E033703F702BE0286
:1000D0008A025B0230020A02E701C701A9018E0110
:1000E00076015F014A013601240113010301180161
:1000F0000901FB000A01FD00F000FC00F000FF0018
:10010000FF00FF00FF00FF00FF00FF00FF00FF00F7
:10011000FF00FF00FF00FF00FF00FF00FF00FF00E7
:10012000FF00FF00FF00FF00FF00FF00FF00FF00D7
:10013000FF00FF00FF00FF00FF00FF00FF00FF00C7
:10014000FF00FF00FF00FF00FF00FF00FF00FF00B7
:10015000FF00FF00FF00FF00FF00FF00FF00FF00A7
:10016000FF00FF00FF00FF00FF00FF00FF00FF0097
:10017000FF00FF00FF00FF00FF00FF00FF00FF0087
:10018000FF00FF00FF00FF00FF00FF00FF00FF0077
:10019000FF00FF00FF00FF00FF00FF00FF00FF0067
:1001A000FF00FF00FF00FF00FF00FF00FF00FF0057
:1001B000000000000000000000000000000000003F
:1001C000000000000000000000000000000001002E
:1001D0000100020002000300030004000400050007
:1001E00005000600060006000700070007000700DC
:1001F00007000700080008000800080008000800C1
:1002000008000800080008000800080008000800AE
:10021000080008000800080008000900090009009B
:100220000A000A000A000B000B000C000D000D0074
:100230000E000F000F00100011001200120013003A
:100240001400150016001700180019001A001B00F2
:100250001C001D001E001F0021002200230025009D
:100260002600270029002A002C002E002F00310034
:1002700033003500370039003B003D003F004100AE
:100280004300460048004A004D004F005200550010
:1002900058005A005D006000630067006A006D004E
:1002A0007100740078007B007F00830087008B0062
:1002B0008F00930097009C00A000A500AA00AF004B
:1002C000B400B900BE00C300C900CE00D400DA00FB
:1002D000DF00E600EC00F200F800FF000100020081
:1002E0000400060009000C000F00130017001C009A
:1002F00022002900300037004000000CA807440904
:10030000C4053108240680072206F106F4056E06AE
:10031000AE0506055905D2045B04F30396034503B5
:100320007E033703F702BE028A025B0230020A0232
:10033000E701C701A9018E0176015F014A0136017B
:1003400024011301030118010901FB000A01FD004A
:10035000F000FC00F000FF00FF00FF00FF00FF00C6
:10036000FF00FF00FF00FF00FF00FF00FF00FF0095
:10037000FF00FF00FF00FF00FF00FF00FF00FF0085
:10038000FF00FF00FF00FF00FF00FF00FF00FF0075
:10039000FF00FF00FF00FF00FF00FF00FF00FF0065
:1003A000FF00FF00FF00FF00FF00FF00FF00FF0055
:1003B000FF00FF00FF00FF00FF00FF00FF00FF0045
:1003C000FF00FF00FF00FF00FF00FF00FF00FF0035
:1003D000FF00FF00FF00FF00FF00FF00FF00FF0025
:1003E000FF00FF00FF00FF00FF00FF00FF00FF0015
:1003F000FF00FF00FF00FF00FF00FF00FF00FF0005
:10040000FF00FF00FF00FF0011241FBECFEFCDBF94
:10041000DFE3DEBF18E3A0E0B8E3EAECF5E202C0F8
:1004200005900D92AA32B107D9F728E3AAE2B8E302
:1004300001C01D92AA3BB207E1F70E94A20F0C94E3
:10044000E012DECDF89498ED94BF80936100809126
:10045000630080FDFCCF78940895E0E0F6E08285AB
:10046000816082878085816080870895E7E8F8E36E
:1004700020E030E09081992339F02F5F3F4F339691
:1004800020313105B9F70BC0F901EE0FFF1F2E0F18
:100490003F1FF901E957F74C808361837283089508
:1004A0000F931F93CF93DF93D0918738DD2351F1C2
:1004B0000091883810918938C0916438C150C7FDC7
:1004C0000DC0EC2FEE0FFF0BEB59F74C0190F081B4
:1004D000E02DB8018D2F09958111F0CFE7E8F8E301
:1004E000838180838481958181839283339688E39D
:1004F000E43BF807A9F71092B4381092B53810927F
:10050000B638D2CFDF91CF911F910F910895BC01E2
:100510008091B938ABCF1092B9381092B738109299
:10052000B83881E08093563808950F931F93CF9386
:10053000C82F0CEC18E0CC2349F085E083DFC8011C
:100540000197F1F781E07EDFC150F5CFCF911F9188
:100550000F910895E0E0F6E083E880838381806274
:100560008383A0EAB0E08C918F7880618C9389E0DE
:10057000868382E0818383E48283109283381092A1
:1005800084386BCF86B183FB882780F991E0892777
:1005900080935D380895E0910638F09107383196E0
:1005A000FB70F460E0930638F09307388091593877
:1005B0008B5A80935938E491809159388E0F089561
:1005C000CF93C82F811112C010923C0A10923D0A9D
:1005D0001092380A1092390A1092200A1092210AB9
:1005E000809104048D7F8093040403C08FEF8C0FEF
:1005F0000BD0C0935B38C0935A38CF3010F485E0ED
:1006000001C081E0CF911ECF90E0880F991FFC01BF
:10061000E452FD4F45915491FC01E055FE4F659128
:1006200074918C579F4FFC01259134918091040463
:1006300082608093040440933C0A50933D0A609387
:10064000380A7093390A2093360A3093370A80911A
:100650005B38811104C01092200A1092210A08957B
:1006600090E0880F991FFC01E452FD4F25913491D1
:10067000FC01E055FE4F4591549180913C0A9091C8
:100680003D0A820F931F8138910528F020933C0A80
:1006900030933D0A1DC080913C0A90913D0A82171B
:1006A000930730F480913C0A90913D0A01960CC06A
:1006B00080913C0A90913D0A2817390748F48091AF
:1006C0003C0A90913D0A019780933C0A90933D0A21
:1006D0008091380A9091390A8417950730F48091F7
:1006E000380A9091390A01960CC08091380A90918D
:1006F000390A4817590748F48091380A9091390A05
:1007000001978093380A9093390A80913C0A90911E
:100710003D0A2817390741F42091380A3091390AE7
:1007200081E04217530709F080E00895CF93DF93EB
:10073000CDB7DEB72697CDBFDEBF90910C382091A4
:1007400075383091763827513A4009F492E0843078
:1007500019F4609318381FC06623E9F0823019F449
:1007600027E9261B622F26E0E4ECF5EADE0111966C
:1007700001900D922A95E1F79E012F5F3F4F280FC0
:10078000311D280F311DF90132970190F081E02DC4
:10079000E90FF11D60832696CDBFDEBFDF91CF91BB
:1007A0000895BF92CF92DF92EF92FF920F931F9323
:1007B000CF93DF93EC0140910C3890911738992337
:1007C00011F0E2E001C0E42FF0E0E45FF74C228199
:1007D00020930938858180930838E92FF0E0E45FA1
:1007E000F74C3185622F70E0442349F0313039F401
:1007F0009B01280F311DC9019595879538C0C617F3
:10080000D707A4F1682F70E06C177D0784F14111C0
:1008100002C08C2F2CC0821B032F10E00150110945
:10082000E82EF12CC701B8010E9499126093533849
:100830006695E62FF0E0822FC12CD12CB12CB31697
:10084000B1F0C601B8010E948512822F860FCE0C2E
:10085000DF1CAE01481B510957FF03C0519541955C
:100860005109E417F5071CF4B394E9CF822FDF9107
:10087000CF911F910F91FF90EF90DF90CF90BF909D
:10088000089580915138882351F090915B3890936E
:1008900052388093503810924E3810924F38089545
:1008A000CF93C0915B3889E18C0F873908F080E0E5
:1008B00087DE82E03ADE8C2FCF9182CECF93C0913B
:1008C0005B3880E07DDE83E030DE8C2FCF9178CE08
:1008D0006111609322380895662389F0813061F4B4
:1008E0008091773890912438891B681B6093243855
:1008F00082E080930B3803C0635E6093233880915D
:100900002338873418F086E4809323380895609361
:1009100025380895E82FF0E0E45FF74C618F0895E3
:1009200081E008958093543890915B38981718F4BB
:10093000282F291B02C0292F281B3091483831113C
:1009400006C030911C38332369F0223058F0809370
:10095000493884E08093473881E080934838909309
:100960004A3808952DCECF93DF938CE098E380939F
:1009700057389093583882E0D8DDF894C0E0D0E042
:10098000E0915738F0915838EC0FFD1F60812196A7
:10099000CE010E94C312CD31D10591F765EA80E006
:1009A00090E00E94C3127894DF91CF910895109245
:1009B00085388091100690915938890F8093593865
:1009C00080917A38882309F43BC110927A3880915B
:1009D0008338811162C080910B38882329F080917F
:1009E0007F38909180381AC080915C3820917B3894
:1009F00030917C388823B9F080917F38909180388D
:100A000053E0969587955A95E1F7820F931F63E01F
:100A1000369527956A95E1F7821B930B80937B3877
:100A200090937C3801C0C901609122386750262F0D
:100A3000220F69E271E00E948512620F609379389B
:100A400080914538882311F081500BC086E9860FCC
:100A5000873210F0633238F460E070E084E006DD45
:100A600085E08093453880915C388111E0C08091A9
:100A7000A0008F7880618093A0008EE180930606AD
:100A800082E08093010683E48093020681E08093F4
:100A9000833810928438E1DCCAC0813009F0C7C0C5
:100AA00080910B38882341F0809181389091823871
:100AB00080937D3890937E38209120118091211170
:100AC000A0917D38B0917E3830E48302A019B1093D
:100AD000112430E00E94AC12DC01CB01905EAF4FDC
:100AE000BF4F892F9A2FAB2FBB2720912438FC01B1
:100AF00036E0F695E7953A95E1F7022E000C330BB8
:100B0000A901435151404E0F5F1F409377385093D6
:100B10007838BC0145E0769567954A95E1F7809174
:100B20000B3881112AC080913438E82FF0E0EE0FA5
:100B3000FF1FEB5CF74C40815181DB01A41BB50B1F
:100B4000AD01608371838F5F8770809334388091AB
:100B5000233890E08D5E9E4F821B930B880F991F68
:100B60009B01281B390BC9019D01220F331F220F46
:100B7000331F820F931F23E00EC0E5E3F8E3619378
:100B8000719388E3E534F807D1F7CDCF009709F0EA
:100B90000196215029F018161906C4F70197F9CFCC
:100BA00018161906E4F457FD39C02091333812168F
:100BB0000CF1880F991FBC016350710977FF02C0C7
:100BC0006F5F7F4F759567951616170614F061E0F5
:100BD00070E088E1861B8093333885E026C08C3F27
:100BE000AFEF9A07DCF457FF19C02091333827FF85
:100BF00005C02450281B2093333818C024EE281B2E
:100C00002093333820917938233980F06CEF7FEFCF
:100C1000681B790B7595679586E007C080917938D8
:100C2000823920F060E070E087E020DC93DC809186
:100C30000B38882329F080910B38815080930B3832
:100C40000895813019F410921A380895823019F4F9
:100C500060931B380895833019F460931938089510
:100C6000843019F460930D380895853011F4609341
:100C70001C380895CF93C0911738C1114FC08830E8
:100C800039F41092513810924E3810924F3847C0B4
:100C9000813B81F4809151388150833008F03EC00F
:100CA00083E0809351388093503810924E381092E0
:100CB0004F3834C0853BB1F4CB016EE370E00E9445
:100CC0008512892B61F5809151388A3F40F58B5F01
:100CD000809351388093503810924E3810924F388C
:100CE000DFDD1DC08130D1F480914E3890914F38B6
:100CF000019688382EE0920728F480934E3890931E
:100D00004F380DC010924E3810924F3880915138A4
:100D1000882329F081508093513801C0C1E08C2F85
:100D2000CF910895FF920F931F93CF93DF938C0180
:100D3000EB01F42E8091753890917638892B31F043
:100D4000E0917538F091763889E00995009375380F
:100D500010937638012B39F0E0917538F0917638A0
:100D6000BE018F2D099581E080935638DF91CF9198
:100D70001F910F91FF900895CF93DF93E091643816
:100D8000EE2359F0E150E0936438F0E0EE0FFF1FDE
:100D9000EB59F74CC081D18102C0C0E0D0E0E091B6
:100DA0006438EE2341F0F0E0EE0FFF1FED59F74CF1
:100DB0008081918102C080E090E04AE060E070E0D4
:100DC000B1DFCE01DF91CF910895883029F41092E0
:100DD000463810922E3815C0813001F590912E388A
:100DE000911107C06032710570F180932E3893DB4A
:100DF0002AC0913089F46B3B710528F082E0809322
:100E00002E3880E01FC061157105E9F06270862FF1
:100E1000880F880F8E5E16C0AFDF15C0813811F0C5
:100E2000813E89F491E090932E38813E21F48091A7
:100E30004638865F03C0809146388F5F809346387E
:100E40006ADB8BE4BDDB80E008959C0190916438FF
:100E5000983088F4E92FF0E0EE0FFF1FEB59F74CC4
:100E6000208331839F5F9093643848E0C9015ADF43
:100E70008091643808958FEF08950F931F93CF9357
:100E8000DF93EC018B0178DFB801CE01DF91CF91C8
:100E90001F910F91DACF843011F5809175389091C0
:100EA00076382CE0823D920729F469E170E084ED08
:100EB00097E013C0845D974061F490915B38923065
:100EC00040F0892F869596959695890F2BDD80E0C9
:100ED000089560E070E087EA9AE0CFDFF8CF81E024
:100EE0000895813C29F460E070E087EA9AE006C04A
:100EF000823C31F460E070E08AE997E0BEDF16C022
:100F0000813B49F4CB016EE370E00E948512892B8E
:100F100069F4C6DC0BC0813E59F4CB016EE370E08E
:100F20000E9485126F5F609321381DDD80E0089577
:100F300081E00895CF93C0911738C11117C0813C4B
:100F400029F460E070E087EA9AE006C0823C31F460
:100F500060E070E08AEB97E090DF09C0873B31F4F6
:100F600060E070E08FE19AE070DF01C0C1E08C2F9B
:100F7000CF910895813C29F460E070E087EA9AE01F
:100F800006C0823C31F460E070E081E797E075DFF5
:100F900007C0873B39F460E070E083E29AE055DFF8
:100FA00080E0089581E00895BF92CF92DF92EF92A2
:100FB000FF920F931F93CF93DF93182FEB01D090E5
:100FC0000938F090083880910C38882319F0B090D7
:100FD000533802C0BB24B394C0900D3880911738A9
:100FE0008111C0901838CC2051F041E0C41621F096
:100FF00080910A388F1518F0F6E9EF2E01C0EF2C1A
:1010000000915138BE01812F35DE209151382223C5
:1010100039F001110CC080915B388093523807C0C1
:10102000002329F060E070E087EA9AE036C0812F63
:101030008D7F8830D9F410924D381A3019F4C09150
:101040000A38D0E08D2D90E08C179D0738F48F2D55
:1010500090E0C817D90710F4C0930A38CE01A1DB7D
:1010600061DC81E08093053800E08DC1113CD1F254
:10107000123C59F480915B388E1510F48E2D02C00D
:1010800080910A384FDCFDDBEFCF143C41F480E067
:1010900097DA60E070E083E49AE0EFDEE5CF8FE47A
:1010A000810F823008F05AC080910C38882341F0BB
:1010B000CE0168E170E00E948512892B31F0D4CF17
:1010C0006091143870E0CE01F6CF009148380111DC
:1010D000CBCF80915B38209761F4123B11F48FEFF6
:1010E00005C08F15E0F7D81648F181E080930538E8
:1010F00025C02091143830E066E371E0269FA001FE
:10110000279F500D369F500D11244C175D0710F48A
:101110008F1528F76CE672E0269FA001279F500DDF
:10112000369F500D11244C175D0740F4D81630F04F
:10113000B7DB60E070E083E49AE09FDE3091053831
:1011400020915B384B2D3403C0011124820F911D77
:1011500028DB80930A38E6DB94DB15C18FE1810F31
:10116000823020F48091053881957CCF113009F0D0
:101170007DC0A99711F410930538222371F1C09115
:101180005238C29F90011124E0915038F0E0C9011B
:10119000BF010E949912462FC9018C1B9109BF0102
:1011A0000E949912242F261B80914E3890914F381F
:1011B0006EE370E00E948512269FC001279F900D6C
:1011C00011246CE370E00E948512461B642F09F421
:1011D00061E060935A3860935438D0915A388091C6
:1011E0005B382D2F30E0281B310960913038709129
:1011F00031386F5F7F4F60933038709331382115ED
:10120000310509F431CF37FF05C08A3630F040E4AC
:1012100050E005C040E052E002C040E051E0569589
:10122000479537FF02C02F5F3F4F35952795211512
:101230003105A9F74617570708F016CFD81710F44D
:10124000CFEF03C08D1718F4C1E0C80F01C0CD2F38
:101250008FEF8C0F05DA882321F08C2FB1D9D09332
:101260005A381092303810923138FECE1530A1F431
:1012700080915B38823408F4F7CE90E08C1B9D0B94
:101280008134910534F08739910564F186E990E065
:1012900029C081E490E026C01630B1F490915B380B
:1012A00080915438981708F0DFCEC90FD11D90E017
:1012B0008C179D0734F0C134D10524F4C1E4D0E08B
:1012C00001C0EC018C2F0EC0173079F490915A3880
:1012D00080915B38891710F48F5F04C0981708F06D
:1012E000C3CE815080935A38BFCE133C81F481E045
:1012F00090910C38911180E080930C3834DBDEDA69
:1013000080915B3890E04DDA80930A38BBCE009133
:101310001738011137C0133B49F4CD2B09F0A4CE87
:10132000CC2011F086E9E82E8E2D04C0133E21F466
:1013300080910A38F7DA27C0153C61F480915B3858
:1013400080930A3880E03CD960E070E08CE69EE053
:1013500094DD19C0173B29F460E070E083E19AE066
:101360000FC01A3C39F480915B3880931A38FBDA4D
:1013700097DA09C01A3B31F460E070E08BE19AE043
:1013800064DD01C001E0802FDF91CF911F910F91AB
:10139000FF90EF90DF90CF90BF900895883071F468
:1013A00010922F3880E00CD980915D38811139C0BE
:1013B00080912F388F5F80932F3823C0982F907F94
:1013C000903BB9F420912F38421780F0CB016DE5A6
:1013D00070E00E948512069739F42F5F20932F3812
:1013E0004217F8F088E303C082E101C080E0E8D84A
:1013F00018C0903E61F480912F38882389F04817F7
:1014000078F060E070E085EE96E01FDD0AC08A307B
:1014100041F46091463880912F38F9010995A3DA9B
:10142000ABDC80E0089526E933E043E0B7CF26E95E
:1014300033E044E0B3CF21E236E045E0AFCF28E629
:1014400034E041E0ABCF2CE634E042E0A7CF27E820
:1014500034E041E0A3CF2AE834E043E09FCF81E0CD
:10146000089590911C38992369F08093493888E059
:101470008093473881E08093483880915B3880932F
:101480004A3808959DC80F931F93CF93DF93D82FA9
:101490008B0180798039B1F420910E3890910F380A
:1014A0008D2F8F70813021F4822F921748F407C05E
:1014B00080911A38811104C0822F291708F4892FCE
:1014C000D0DF12C0803819F480E0CBDF05C0D830FF
:1014D00019F41092553826C0D13031F40931110574
:1014E00068F1D0935C382AC0D33C31F4D9D960E09C
:1014F00070E087EA9AE014C0D43C21F460910A3885
:1015000070E00CC0D43B31F4D9D91092B93861E005
:1015100070E004C0D53C31F466E970E084ED97E0FA
:10152000ACDC0CC0C0911738C1110AC0DA3B41F4E1
:1015300060E070E087E29AE088DC03C0C0E001C0B0
:10154000C1E08C2FDF91CF911F910F9108950F93E0
:101550001F93CF938B01883081F480E082DF8091EC
:101560004838082B1092553810925138012B09F049
:101570003EC081E080935C383AC0813051F46931DB
:101580007105A8F1C0914838C11131C080935C3811
:10159000FAC0833071F5809155388F3F19F08F5F15
:1015A0008093553880911A38882371F090911B38B8
:1015B00042EC51E0949F9001959F300D1124021749
:1015C000130710F080930A3880912538882379F02A
:1015D00042EC51E0849F9001859F300D112420172B
:1015E000310728F460E070E083E49AE046DCC0E074
:1015F000CAC0813B91F481E090E0D3D832DF809182
:1016000019388111F4CF80910C38811103C0083151
:10161000110568F361E070E027C0813ED9F381389D
:1016200021F480910A3890E015C0813C21F460914A
:101630000A3870E019C0823B89F4109255388091C5
:101640000D3890911738911180911838811104C08C
:1016500086E990E0A6D810C086E90EC0823E59F017
:10166000823C29F466E970E084ED97E0BFCF8339CE
:1016700029F41092483880E0F4DEB9CF833C29F495
:1016800060E070E08AE997E0B1CF843C11F408D9BA
:10169000A9CF8D3B49F4F89491E088ED84BF9093F5
:1016A00000017894A895FFCFC09117388F3C89F539
:1016B000CC2389F01092253883E380931A388093E5
:1016C00010388093133881E08093163880931C384B
:1016D0001092183827C08EE580931A3821E02093A5
:1016E0000E389CE89093113887E08093143820934B
:1016F0000F389093123880931538209310389093B8
:101700001338809316382FD960E070E08FE29AE0AA
:1017100035C08A3B79F4672B69F4CC2329F0C0D813
:101720001092173820D963CF60E070E087E19AE02B
:101730008CDB29C0CC2361F0863C21F580911638E2
:10174000843000F1ADD860E070E081EB9EE04ECFD8
:10175000833B29F460E070E082ED9CE00FC08A3C9E
:1017600031F49ED881E080931738FDD80CC0853CB9
:1017700039F496D860E070E08CE69EE07EDB03C032
:10178000863C01F3C1E08C2FCF911F910F910895FA
:101790000F931F93CF9310925F388091B738909139
:1017A000B8389C012F5F3F4F88279078822B932B6E
:1017B0008093B7389093B838C0915D380E94C202C8
:1017C000C81731F110925C3880935D389091B93828
:1017D000882359F0892F80699F709F3009F08F5FAF
:1017E0008093B93880E090E00DC0892F8F7E95FD01
:1017F00002C0806801C0806C8093B9388091B7388E
:101800009091B8380E9487021092B7381092B83879
:101810000091B7381091B83880915C38882349F02E
:10182000B80183E00E943602CF911F910F910C9472
:101830005002C091B9388C2F807F803B19F460E052
:1018400070E001C0B80181E00E943602C4FF13C0FD
:10185000C5FF02C0C8010CC008311105E0F01092AC
:10186000B7381092B838C062C093B93880E090E0C1
:101870000E94870210C0CC2371F0C5FD0AC002315E
:10188000110548F0C064C093B93880E090E00E9430
:1018900087020E948B02C0913238C11105C00E949C
:1018A0002D0281E080937A38CF5FCF71C0933238B8
:1018B000CF911F910F91089580918538811177D82C
:1018C00080915F38811164CF0895EF92FF920F935A
:1018D0001F93CF93DF93EC0102E418E080E1E82E40
:1018E00082E0F82E2097D9F080915638811119C0E6
:1018F00080915B388F3028F485E00E942202C70176
:1019000004C081E00E942202C8010197F1F781E042
:101910000E942202D1DF0E9450022197E3CF81E092
:1019200001C080E0DF91CF911F910F91FF90EF9068
:101930000895CF93C82F882391F089E10E94E00297
:1019400086EA90E0C2DF80E00E94E0028AEF90E049
:10195000BCDFC15091F78AE992E0CF91B6CF89E11F
:101960000E94E0028AE090E0B0DF80E00E94E002A6
:101970008AEF90E0AADFEFCFCF93DF9364E6B9D58B
:10198000282F892F6AE0B5D5EC01222341F0822F60
:10199000D0DF8C2FCEDF8D2FDF91CF91CACFC11139
:1019A000F8CFF9CFFF920F931F93CF93DF93D82FE8
:1019B0008B01C0914B3881E080934D38C33009F0E2
:1019C000ECC0F09051388D2F55D9FF2051F0809107
:1019D0005138811106C060E070E087EA9AE04DDA84
:1019E000DCC0D83021F481E080930338D8C0D23CE9
:1019F00019F410925138E5C0D13BC1F490910238EE
:101A0000012B49F49F3010F08FEF03C0923018F48F
:101A100081E08093033880910338890F11F481E0CD
:101A20003CC1803108F439C18FE037C1D13E31F477
:101A30008091033881958093033804C1D23B61F4CF
:101A400081E08093033880910238823008F402C12B
:101A5000815080930238FEC0D13009F0B6C00932FF
:101A6000110511F4D093033890912D38892F880FE8
:101A700097FD80952FE0829FC001112430912C3872
:101A8000232F220F37FD209580910138289F900148
:101A90001124232F290F90912B38892F880F97FD20
:101AA000809590910038899FC0011124822F890F61
:101AB0006091023870E0680F711D8091513881305B
:101AC000B9F480914E3890914F3825E096958795DE
:101AD0002A95E1F724E730E0A901481B590B469FFE
:101AE000C001479F900D569F900D1124B9010DD54F
:101AF000862F0E94E00200FD08C00E94CB02817088
:101B000090912D38890F80932D3890912C388091A9
:101B10002A38890F80932C380E94CB0265E2E9D4E1
:101B200080912B38980F90932B380E94CB028F73A3
:101B300031F40E94CB026DE0DCD490932A38C0913E
:101B40000138CC2339F00E94CB028F7319F4C150B5
:101B5000C09301380E94CB02811108C00E94CB02C1
:101B600066E1C7D49093013810922C38C0910038A8
:101B7000C33038F00E94CB028F7119F4C150C0936A
:101B800000380E94CB028F7709F08BC00E94CB02F5
:101B90006CE0AFD49093003884C0D83041F4809189
:101BA0001D3880934B3881E08093043878C0D13C55
:101BB00031F460E070E087EA9AE05FD970C0D23C0F
:101BC00031F48C2F90E0019607C0D13C91F3D43CC6
:101BD00059F48C2F90E0049665E070E0AAD48093CD
:101BE0001D3880934B3849C0D13B51F5C23090F439
:101BF00000FD55C0EC2FF0E0E45FF74C8289909136
:101C00000438891B883020F08F3F99F58EEF31C062
:101C100088E02FC0C43009F042C0909120388091F4
:101C20000438890F823010F482E003C08F3608F048
:101C30008EE680932038809120380E94E0022FC0E9
:101C4000D13E31F48091043881958093043815C0D9
:101C5000D23B89F481E080930438C23070F500FDF6
:101C60001EC0EC2FF0E0E45FF74C82898F3FB9F0A3
:101C70008F5F828B14C0D23E19F40E94B3040FC050
:101C8000D53C39F460E070E08CE69EE0F6D880E068
:101C9000D4CFD13031F081E019C08093023880E098
:101CA00015C00932110519F481E080930438809140
:101CB0005938080F00935938F2CFC43081F780911A
:101CC0002038833008F4B7CF8150B3CFDF91CF9164
:101CD0001F910F91FF9008950F931F93CF93DF9360
:101CE000D82F8B01883031F480914D38882311F042
:101CF00088E058DE8D2F8079803961F481E080930F
:101D00004C38C0914D38C1110CC080910A380E94E6
:101D1000E00221C0803839F410924C3880E00E94F3
:101D2000E002C0E018C0D130A9F4C0914C38CC23F7
:101D300059F080914D388823A1F3B80181E0DF91FB
:101D4000CF911F910F912ECE0733114050F3D093B6
:101D50005C3801C0C1E08C2FDF91CF911F910F91B2
:101D60000895EF92FF921F93CF93DF93C82F7B01CB
:101D7000D0910A388079803931F5EC2FEF70E4305A
:101D800020F010924C3810E032C091E090934C3823
:101D9000F0E0E45FF74C818D2FEF280F263928F40F
:101DA00080930A3810924D380CC090934D38873983
:101DB000D0F090E08759910965E070E0BAD3809344
:101DC0004B3810E00BC0803841F410924C3880E062
:101DD0000E94E00281E08093563811E080914C38F7
:101DE000882329F001C010E0B7018C2F75DFD09354
:101DF0000A38C83021F4B70188E045DB1FC0C13084
:101E000039F480914C38811126C0B70181E004C0BB
:101E1000C33041F4B70183E0DF91CF911F91FF9070
:101E2000EF9031CBC33CB9F0C63C41F40E94500462
:101E300060E070E087EA9AE020D80DC0D0911738B2
:101E4000D1110BC0C73B59F460E070E08BE29AE01F
:101E50000E94250705C0D0E003C0D1E001C0D12F0A
:101E60008D2FDF91CF911F91FF90EF9008951F92DA
:101E70000F920FB60F9211242F933F938F939F933E
:101E8000AF93BF93EF93FF9381E080930B06809114
:101E90008438882331F1E091833880911006909145
:101EA000110624E0880F991F2A95E1F7F0E0EE0F64
:101EB000FF1FDF01A158B74C8D939C93E558F74C59
:101EC000208131812817390710F42F5F3F4F821787
:101ED000930710F4215031092083318381E08093EE
:101EE000853881E080938438FF91EF91BF91AF9165
:101EF0009F918F913F912F910F900FBE0F901F9048
:101F000018951F920F920FB60F9211248F9381E0B4
:101F10008093530180935F388F910F900FBE0F9085
:101F20001F9018951F920F920FB60F9211248F9346
:101F30003B9A81E080935E388F910F900FBE0F9097
:101F40001F901895F89480914000877F80934000FF
:101F500088EDA89584BF90910001907F9093000137
:101F600021E030E084BF2093610082E080B981E20B
:101F700084B988E080931004809312048093130442
:101F8000809314048093150480931604809317049F
:101F9000809331048093320499E0909333048093CA
:101FA000500480935104809352048093530484E03E
:101FB0008093020287E58093010A8FEF90E080937F
:101FC000360A9093370A91E09093000A8091330487
:101FD000816080933304909352018091510181116B
:101FE000FCCF81E4809350010E94AA02789481E0A2
:101FF0000E94950260E070E08BE497E00E94250764
:10200000109256380E9450040E94C202811117C0DB
:102010008CE098E3809357389093583882E00E9480
:102020009502F89480E090E0A6D2853A09F044C089
:102030000091573810915838C1E0D0E034C0C0E06A
:102040008C2F0E94E00283E190E03FDC8C2F86958C
:102050000E94E00283E190E038DC0E94C202882303
:10206000B9F0CF5FC03461F7609177388091243840
:10207000681B81E00E946C040E94B304C6E98C2FA7
:102080000E94E00284E090E020DCC150C1F7C0CFA4
:10209000CC2309F4BDCF8C2F0E94E0028DE090E0AC
:1020A00014DCC150F5CFCE0166D2F80181938F01C7
:1020B0002196CE31D105B9F7789480911A388111E3
:1020C00080930A3860E070E080E994E00E94250780
:1020D00061E070E087EA9AE00E9425074424439477
:1020E0002224239447E0342ECC24C394D12C65E0E1
:1020F000562E7CEF672E73E0772EE8EE8E2EE3E00F
:102100009E2EF7EAAF2EFAE0BF2E0E945002809179
:10211000623890916338009751F060916038709107
:1021200061380E943D0710926238109263388091A6
:102130005C38882309F466C080E00E94E002409287
:102140005201809151018111FCCFF9E5F0935001CA
:10215000809100068E7F809300060E94C20281114A
:10216000FCCF0E948B028091330481608093330402
:102170001092853810925F3810925E3880915C38EA
:10218000882369F180918638882329F08091500056
:10219000897F826004C080915000897F8460809331
:1021A000500080915000816080935000889580910C
:1021B00050008E7F8093500080915E388111109284
:1021C0005C3880918538882321F020927A380E94EB
:1021D000D70480915F38882389F2DADACFCF22E002
:1021E00020930B3880913304887F809333040E94BE
:1021F000AA0240925201809151018111FCCF31E439
:102200003093500159DB1092563880917538909177
:102210007638EAE08F329E0719F5CCE7D0E0FE0170
:1022200084918053803110F484DB11C010E0812F41
:1022300081708295880F807E0E94E00280E190E0AC
:1022400044DB1F5F193199F78AE992E03EDB8CE2AB
:1022500091E03BDB2196F0E0C338DF0701F7D3C004
:102260002CE0823D920799F03EE08C36930729F0EE
:10227000EEE0813B9E0709F0AFC020914D38213040
:1022800009F0AAC020914C38222309F4A5C0C091BE
:102290004B38C23011F120F0C43009F480C035CF82
:1022A000EC2FF0E0E45FF74CD28986E90E94E0026F
:1022B000C11109C0DA3220F4C3010197F1F707C058
:1022C00081E090E003C08D2F869590E0FEDA81E0FA
:1022D0000E94E0028D2F90E0F9C00E94CB028F7324
:1022E000E82EF12C0E94CB02632D03D1E60102C03F
:1022F000CC0FDD1F9A95E2F70E94CB02652DF9D035
:10230000960102C0220F331F9A95E2F7C20FD31F26
:102310000E94CB0290E0BE010CD1C80FD91FC73973
:10232000D10514F0C6E9D0E08C2F0E94E002C7016D
:10233000CCDA8E0133E0159507953A95E1F7011156
:1023400001C001E010E0C701C0DAC01BD10BD7FF0C
:1023500002C0C0E0D0E08C2F0E94E0020E94CB02BD
:10236000837039F4C701B1DACE01959587950E9443
:10237000E002C230D1053CF70E94CB026DE0B9D03B
:10238000E60102C0CC0FDD1F9A95E2F70E94CB0256
:1023900090E0BE01BAD0C80FD91F80E094C0C091B0
:1023A0002038CC0FC73908F0C6E9D4E08C2F0E9442
:1023B000E00285E090E089DA809120380E94E00216
:1023C00081E490E082DAD15089F780ED92E07DDA05
:1023D00080E00E94E00299CE37E08A399307E1F469
:1023E00088EE93E072DA80917938652D82D0C4DA74
:1023F00080917938652D7DD0892F880FBDDA809145
:102400001738882381F0A0926238B0926338109216
:1024100060381092613879CEE7E08A3B9E0731F44C
:1024200080917738A9DA88EE93E050C081579740C1
:10243000C1F480915D38811168CE80910A380E9484
:10244000E00284E690E041DA80E00E94E002209120
:102450002138289DC001299D900D11248456910991
:1024600035C080911C38882399F1809148388823A1
:1024700079F120915B3890914938291306C0822F59
:102480000E94E0021092483840CE609147382917E8
:1024900060F4892F821B2DD0811101C081E0820F51
:1024A0000E94E0028AE090E011C03EE1639FA0013B
:1024B000112460914A38691B70E0CA013AD0EB01DF
:1024C00021968FEF820F0E94E002CE01FED91DCE31
:1024D00080915000897F80935000809150008160EE
:1024E000809350008895809150008E7F809350009B
:1024F0000CCE991B79E004C0991F961708F0961B23
:10250000881F7A95C9F780950895AA1BBB1B51E1D6
:1025100007C0AA1FBB1FA617B70710F0A61BB70B53
:10252000881F991F5A95A9F780959095BC01CD01F8
:10253000089597FB072E16F4009406D077FD08D077
:10254000E4DF07FC05D03EF4909581959F4F0895F8
:10255000709561957F4F0895A29FB001B39FC00110
:10256000A39F700D811D1124911DB29F700D811DBF
:102570001124911D089503D0808199270895FC01AD
:10258000E050FC4E0895262FFADF0080021611F06D
:1025900004D0019701970895262FAF93BF93E0E0F1
:1025A000F0E1328131FDFDCFDC01A050BC4E2C9317
:1025B0003DE934BF23E020830196BF91AF91089598
:0425C000F894FFCFBD
:0625C4000E381138143836
:1025CA000C161801010100048601440201020101EE
:1025DA000186868601080801020144010003294395
:0A25EA006E0207270001989B76009F
:00000001FF
